{"contracts/contracts/DCURewardManager.sol":{"DCURewardManager":{"abi":[{"inputs":[{"internalType":"address","name":"_dcuToken","type":"address"},{"internalType":"address","name":"_nftCollection","type":"address"}],"stateMutability":"nonpayable","type":"constructor"},{"inputs":[{"internalType":"address","name":"owner","type":"address"}],"name":"OwnableInvalidOwner","type":"error"},{"inputs":[{"internalType":"address","name":"account","type":"address"}],"name":"OwnableUnauthorizedAccount","type":"error"},{"inputs":[],"name":"ReentrancyGuardReentrantCall","type":"error"},{"anonymous":false,"inputs":[{"indexed":true,"internalType":"address","name":"user","type":"address"},{"indexed":true,"internalType":"uint256","name":"level","type":"uint256"},{"indexed":false,"internalType":"uint256","name":"amount","type":"uint256"}],"name":"DCURewardImpactProduct","type":"event"},{"anonymous":false,"inputs":[{"indexed":true,"internalType":"address","name":"referrer","type":"address"},{"indexed":true,"internalType":"address","name":"invitee","type":"address"},{"indexed":false,"internalType":"uint256","name":"amount","type":"uint256"}],"name":"DCURewardReferral","type":"event"},{"anonymous":false,"inputs":[{"indexed":true,"internalType":"address","name":"user","type":"address"},{"indexed":false,"internalType":"uint256","name":"amount","type":"uint256"},{"indexed":false,"internalType":"uint256","name":"streakDays","type":"uint256"}],"name":"DCURewardStreak","type":"event"},{"anonymous":false,"inputs":[{"indexed":false,"internalType":"uint256","name":"oldAmount","type":"uint256"},{"indexed":false,"internalType":"uint256","name":"newAmount","type":"uint256"}],"name":"HypercertBonusUpdated","type":"event"},{"anonymous":false,"inputs":[{"indexed":true,"internalType":"address","name":"user","type":"address"},{"indexed":false,"internalType":"uint256","name":"hypercertNumber","type":"uint256"},{"indexed":false,"internalType":"uint256","name":"amount","type":"uint256"}],"name":"HypercertRewardClaimed","type":"event"},{"anonymous":false,"inputs":[{"indexed":false,"internalType":"uint256","name":"oldAmount","type":"uint256"},{"indexed":false,"internalType":"uint256","name":"newAmount","type":"uint256"}],"name":"ImpactReportRewardUpdated","type":"event"},{"anonymous":false,"inputs":[{"indexed":true,"internalType":"address","name":"oldCollection","type":"address"},{"indexed":true,"internalType":"address","name":"newCollection","type":"address"}],"name":"NftCollectionUpdated","type":"event"},{"anonymous":false,"inputs":[{"indexed":true,"internalType":"address","name":"user","type":"address"},{"indexed":false,"internalType":"bool","name":"minted","type":"bool"}],"name":"NftMintStatusUpdated","type":"event"},{"anonymous":false,"inputs":[{"indexed":true,"internalType":"address","name":"previousOwner","type":"address"},{"indexed":true,"internalType":"address","name":"newOwner","type":"address"}],"name":"OwnershipTransferred","type":"event"},{"anonymous":false,"inputs":[{"indexed":true,"internalType":"address","name":"user","type":"address"},{"indexed":false,"internalType":"bool","name":"verified","type":"bool"}],"name":"PoiVerificationUpdated","type":"event"},{"anonymous":false,"inputs":[{"indexed":true,"internalType":"address","name":"invitee","type":"address"},{"indexed":true,"internalType":"address","name":"referrer","type":"address"}],"name":"ReferralRegistered","type":"event"},{"anonymous":false,"inputs":[{"indexed":false,"internalType":"uint256","name":"oldAmount","type":"uint256"},{"indexed":false,"internalType":"uint256","name":"newAmount","type":"uint256"}],"name":"ReferralRewardUpdated","type":"event"},{"anonymous":false,"inputs":[{"indexed":true,"internalType":"address","name":"referrer","type":"address"},{"indexed":true,"internalType":"address","name":"invitee","type":"address"},{"indexed":false,"internalType":"uint256","name":"amount","type":"uint256"}],"name":"ReferralRewarded","type":"event"},{"anonymous":false,"inputs":[{"indexed":true,"internalType":"address","name":"user","type":"address"},{"indexed":false,"internalType":"uint256","name":"amount","type":"uint256"},{"indexed":false,"internalType":"uint8","name":"rewardType","type":"uint8"},{"indexed":false,"internalType":"uint256","name":"timestamp","type":"uint256"}],"name":"RewardAccrued","type":"event"},{"anonymous":false,"inputs":[{"indexed":false,"internalType":"uint256","name":"claimReward","type":"uint256"},{"indexed":false,"internalType":"uint256","name":"referralReward","type":"uint256"},{"indexed":false,"internalType":"uint256","name":"streakReward","type":"uint256"}],"name":"RewardAmountsUpdated","type":"event"},{"anonymous":false,"inputs":[{"indexed":true,"internalType":"address","name":"user","type":"address"},{"indexed":false,"internalType":"bool","name":"eligible","type":"bool"},{"indexed":false,"internalType":"bool","name":"manualOverride","type":"bool"}],"name":"RewardEligibilityUpdated","type":"event"},{"anonymous":false,"inputs":[{"indexed":true,"internalType":"address","name":"user","type":"address"},{"indexed":false,"internalType":"uint256","name":"amount","type":"uint256"},{"indexed":false,"internalType":"uint256","name":"timestamp","type":"uint256"}],"name":"RewardsClaimed","type":"event"},{"anonymous":false,"inputs":[{"indexed":true,"internalType":"address","name":"oldSubmission","type":"address"},{"indexed":true,"internalType":"address","name":"newSubmission","type":"address"}],"name":"SubmissionContractUpdated","type":"event"},{"anonymous":false,"inputs":[{"indexed":true,"internalType":"address","name":"oldTreasury","type":"address"},{"indexed":true,"internalType":"address","name":"newTreasury","type":"address"}],"name":"TreasuryUpdated","type":"event"},{"anonymous":false,"inputs":[{"indexed":false,"internalType":"uint256","name":"oldAmount","type":"uint256"},{"indexed":false,"internalType":"uint256","name":"newAmount","type":"uint256"}],"name":"VerifierRewardUpdated","type":"event"},{"inputs":[{"internalType":"uint256","name":"hypercertNumber","type":"uint256"}],"name":"claimHypercertReward","outputs":[],"stateMutability":"nonpayable","type":"function"},{"inputs":[{"internalType":"uint256","name":"amount","type":"uint256"}],"name":"claimRewards","outputs":[],"stateMutability":"nonpayable","type":"function"},{"inputs":[{"internalType":"address","name":"","type":"address"}],"name":"claimRewardsAmount","outputs":[{"internalType":"uint256","name":"","type":"uint256"}],"stateMutability":"view","type":"function"},{"inputs":[],"name":"dcuToken","outputs":[{"internalType":"contract IDCUToken","name":"","type":"address"}],"stateMutability":"view","type":"function"},{"inputs":[{"internalType":"address","name":"user","type":"address"},{"internalType":"uint256","name":"amount","type":"uint256"}],"name":"distributeRewards","outputs":[],"stateMutability":"nonpayable","type":"function"},{"inputs":[{"internalType":"address","name":"user","type":"address"}],"name":"getBalance","outputs":[{"internalType":"uint256","name":"","type":"uint256"}],"stateMutability":"view","type":"function"},{"inputs":[{"internalType":"address","name":"invitee","type":"address"}],"name":"getReferrer","outputs":[{"internalType":"address","name":"","type":"address"}],"stateMutability":"view","type":"function"},{"inputs":[{"internalType":"address","name":"user","type":"address"}],"name":"getRewardsBreakdown","outputs":[{"internalType":"uint256","name":"claimReward","type":"uint256"},{"internalType":"uint256","name":"streakRewardAmount","type":"uint256"},{"internalType":"uint256","name":"referralRewardAmount","type":"uint256"},{"internalType":"uint256","name":"currentBalance","type":"uint256"},{"internalType":"uint256","name":"claimedRewards","type":"uint256"}],"stateMutability":"view","type":"function"},{"inputs":[{"internalType":"address","name":"user","type":"address"}],"name":"getTotalEarnedDCU","outputs":[{"internalType":"uint256","name":"","type":"uint256"}],"stateMutability":"view","type":"function"},{"inputs":[{"internalType":"address","name":"user","type":"address"}],"name":"getUserRewardStats","outputs":[{"components":[{"internalType":"uint256","name":"currentBalance","type":"uint256"},{"internalType":"uint256","name":"totalEarned","type":"uint256"},{"internalType":"uint256","name":"totalClaimed","type":"uint256"},{"internalType":"uint256","name":"claimRewardsAmount","type":"uint256"},{"internalType":"uint256","name":"streakRewardsAmount","type":"uint256"},{"internalType":"uint256","name":"referralRewardsAmount","type":"uint256"},{"internalType":"uint256","name":"impactReportRewardsAmount","type":"uint256"}],"internalType":"struct DCURewardManager.UserRewardStats","name":"","type":"tuple"}],"stateMutability":"view","type":"function"},{"inputs":[{"internalType":"address","name":"user","type":"address"}],"name":"getVerificationStatus","outputs":[{"internalType":"bool","name":"poiStatus","type":"bool"},{"internalType":"bool","name":"nftStatus","type":"bool"},{"internalType":"bool","name":"eligible","type":"bool"}],"stateMutability":"view","type":"function"},{"inputs":[],"name":"hypercertBonus","outputs":[{"internalType":"uint256","name":"","type":"uint256"}],"stateMutability":"view","type":"function"},{"inputs":[{"internalType":"bytes32","name":"","type":"bytes32"}],"name":"hypercertRewardsClaimed","outputs":[{"internalType":"bool","name":"","type":"bool"}],"stateMutability":"view","type":"function"},{"inputs":[],"name":"impactProductClaimReward","outputs":[{"internalType":"uint256","name":"","type":"uint256"}],"stateMutability":"view","type":"function"},{"inputs":[{"internalType":"address","name":"","type":"address"},{"internalType":"uint256","name":"","type":"uint256"}],"name":"impactProductClaimed","outputs":[{"internalType":"bool","name":"","type":"bool"}],"stateMutability":"view","type":"function"},{"inputs":[],"name":"impactReportReward","outputs":[{"internalType":"uint256","name":"","type":"uint256"}],"stateMutability":"view","type":"function"},{"inputs":[{"internalType":"address","name":"","type":"address"}],"name":"impactReportRewardsAmount","outputs":[{"internalType":"uint256","name":"","type":"uint256"}],"stateMutability":"view","type":"function"},{"inputs":[{"internalType":"address","name":"","type":"address"}],"name":"lastPoiTimestamp","outputs":[{"internalType":"uint256","name":"","type":"uint256"}],"stateMutability":"view","type":"function"},{"inputs":[],"name":"nftCollection","outputs":[{"internalType":"address","name":"","type":"address"}],"stateMutability":"view","type":"function"},{"inputs":[{"internalType":"address","name":"","type":"address"}],"name":"nftMinted","outputs":[{"internalType":"bool","name":"","type":"bool"}],"stateMutability":"view","type":"function"},{"inputs":[],"name":"owner","outputs":[{"internalType":"address","name":"","type":"address"}],"stateMutability":"view","type":"function"},{"inputs":[{"internalType":"address","name":"","type":"address"}],"name":"poiVerified","outputs":[{"internalType":"bool","name":"","type":"bool"}],"stateMutability":"view","type":"function"},{"inputs":[],"name":"referralReward","outputs":[{"internalType":"uint256","name":"","type":"uint256"}],"stateMutability":"view","type":"function"},{"inputs":[{"internalType":"address","name":"","type":"address"}],"name":"referralRewarded","outputs":[{"internalType":"bool","name":"","type":"bool"}],"stateMutability":"view","type":"function"},{"inputs":[{"internalType":"address","name":"","type":"address"}],"name":"referralRewardsAmount","outputs":[{"internalType":"uint256","name":"","type":"uint256"}],"stateMutability":"view","type":"function"},{"inputs":[{"internalType":"address","name":"","type":"address"}],"name":"referrers","outputs":[{"internalType":"address","name":"","type":"address"}],"stateMutability":"view","type":"function"},{"inputs":[{"internalType":"address","name":"invitee","type":"address"},{"internalType":"address","name":"referrer","type":"address"}],"name":"registerReferral","outputs":[],"stateMutability":"nonpayable","type":"function"},{"inputs":[],"name":"renounceOwnership","outputs":[],"stateMutability":"nonpayable","type":"function"},{"inputs":[{"internalType":"address","name":"","type":"address"}],"name":"rewardEligibility","outputs":[{"internalType":"bool","name":"","type":"bool"}],"stateMutability":"view","type":"function"},{"inputs":[{"internalType":"address","name":"user","type":"address"}],"name":"rewardHypercertMint","outputs":[],"stateMutability":"nonpayable","type":"function"},{"inputs":[{"internalType":"address","name":"user","type":"address"},{"internalType":"uint256","name":"level","type":"uint256"}],"name":"rewardImpactProductClaim","outputs":[],"stateMutability":"nonpayable","type":"function"},{"inputs":[{"internalType":"address","name":"user","type":"address"},{"internalType":"uint256","name":"reportCount","type":"uint256"}],"name":"rewardImpactReports","outputs":[],"stateMutability":"nonpayable","type":"function"},{"inputs":[{"internalType":"address","name":"verifier","type":"address"}],"name":"rewardVerifier","outputs":[],"stateMutability":"nonpayable","type":"function"},{"inputs":[{"internalType":"address","name":"user","type":"address"},{"internalType":"bool","name":"status","type":"bool"}],"name":"setPoiVerificationStatus","outputs":[],"stateMutability":"nonpayable","type":"function"},{"inputs":[{"internalType":"address","name":"user","type":"address"},{"internalType":"bool","name":"status","type":"bool"}],"name":"setRewardEligibilityForTesting","outputs":[],"stateMutability":"nonpayable","type":"function"},{"inputs":[{"internalType":"address","name":"_submission","type":"address"}],"name":"setSubmissionContract","outputs":[],"stateMutability":"nonpayable","type":"function"},{"inputs":[],"name":"streakReward","outputs":[{"internalType":"uint256","name":"","type":"uint256"}],"stateMutability":"view","type":"function"},{"inputs":[{"internalType":"address","name":"","type":"address"}],"name":"streakRewardsAmount","outputs":[{"internalType":"uint256","name":"","type":"uint256"}],"stateMutability":"view","type":"function"},{"inputs":[],"name":"submissionContract","outputs":[{"internalType":"address","name":"","type":"address"}],"stateMutability":"view","type":"function"},{"inputs":[{"internalType":"address","name":"","type":"address"}],"name":"totalClaimed","outputs":[{"internalType":"uint256","name":"","type":"uint256"}],"stateMutability":"view","type":"function"},{"inputs":[{"internalType":"address","name":"","type":"address"}],"name":"totalEarned","outputs":[{"internalType":"uint256","name":"","type":"uint256"}],"stateMutability":"view","type":"function"},{"inputs":[{"internalType":"address","name":"newOwner","type":"address"}],"name":"transferOwnership","outputs":[],"stateMutability":"nonpayable","type":"function"},{"inputs":[],"name":"treasury","outputs":[{"internalType":"address","name":"","type":"address"}],"stateMutability":"view","type":"function"},{"inputs":[{"internalType":"uint256","name":"newHypercertBonus","type":"uint256"}],"name":"updateHypercertBonus","outputs":[],"stateMutability":"nonpayable","type":"function"},{"inputs":[{"internalType":"uint256","name":"newImpactReportReward","type":"uint256"}],"name":"updateImpactReportReward","outputs":[],"stateMutability":"nonpayable","type":"function"},{"inputs":[{"internalType":"address","name":"_nftCollection","type":"address"}],"name":"updateNftCollection","outputs":[],"stateMutability":"nonpayable","type":"function"},{"inputs":[{"internalType":"address","name":"user","type":"address"},{"internalType":"bool","name":"hasMinted","type":"bool"}],"name":"updateNftMintStatus","outputs":[],"stateMutability":"nonpayable","type":"function"},{"inputs":[{"internalType":"uint256","name":"newReferralReward","type":"uint256"}],"name":"updateReferralReward","outputs":[],"stateMutability":"nonpayable","type":"function"},{"inputs":[{"internalType":"uint256","name":"newClaimReward","type":"uint256"},{"internalType":"uint256","name":"newReferralReward","type":"uint256"},{"internalType":"uint256","name":"newStreakReward","type":"uint256"}],"name":"updateRewardAmounts","outputs":[],"stateMutability":"nonpayable","type":"function"},{"inputs":[{"internalType":"address","name":"newTreasury","type":"address"}],"name":"updateTreasury","outputs":[],"stateMutability":"nonpayable","type":"function"},{"inputs":[{"internalType":"uint256","name":"newVerifierReward","type":"uint256"}],"name":"updateVerifierReward","outputs":[],"stateMutability":"nonpayable","type":"function"},{"inputs":[{"internalType":"address","name":"","type":"address"}],"name":"userBalances","outputs":[{"internalType":"uint256","name":"","type":"uint256"}],"stateMutability":"view","type":"function"},{"inputs":[],"name":"verifierReward","outputs":[{"internalType":"uint256","name":"","type":"uint256"}],"stateMutability":"view","type":"function"}],"evm":{"bytecode":{"linkReferences":{},"object":"60a03461019757601f6124e138819003918201601f19168301916001600160401b0383118484101761019c57808492604094855283398101031261019757610052602061004b836101b2565b92016101b2565b9033156101815760008054336001600160a01b0319821681178355604051939290916001600160a01b0316907f8be0079c531659141344cd1fd0a4f28419497f9722a3daafe3b4186f6b6457e09080a360018055678ac7230489e8000060058190556729a2241af62c00006006819055600755674563918244f40000600855670de0b6b3a7640000600955600a556001600160a01b031690811561013f5750608052600280546001600160a01b03929092166001600160a01b03199283161790556004805433921691909117905560405161231a90816101c782396080518181816119cd0152611aa70152f35b62461bcd60e51b815260206004820152601660248201527f5245574152445f5f496e76616c696441646472657373000000000000000000006044820152606490fd5b631e4fbdf760e01b600052600060045260246000fd5b600080fd5b634e487b7160e01b600052604160045260246000fd5b51906001600160a01b03821682036101975756fe6080604052600436101561001257600080fd5b60003560e01c80630962ef79146119f157806314cde16e146119ad57806321c838ef1461164457806322b316191461160a57806322c1f447146115ec57806326224c641461032c5780632f6f92b3146115ad5780633aec4473146115735780633efe458a14611555578063441eacba146114ed57806347c24fcf146113555780634a3b68cc146113125780634a9fefc7146113125780634c5a3f1b1461128d5780634d6836741461126f5780634f3f2832146112355780635001d45f146112175780635603b9f9146110e25780635b651c48146110695780635fd6ac8114610fea5780636103681a14610f7e57806361d027b314610f5757806362d2eea214610f18578063649aca4a146105a957806364f9386a14610ede5780636588103b14610eb757806369e23ced14610e7d578063715018a614610e1757806376e1748314610d3a578063794882d114610d1c5780637f51bb1f14610c97578063823888d114610c66578063842ce38114610c3f57806389e0e554146109d35780638da5cb5b146109ac57806395b61987146109445780639afdf64d146108ec5780639b13027d146107c4578063a1905a0714610712578063a8031a1d146106b6578063aa58152d14610669578063b49e80f41461064b578063c0ccc0f4146105e3578063c107e3b4146105a9578063d5b3081b14610568578063dac773c014610529578063e554e1ad146104c1578063e9ecfef31461044f578063ef5d9ae814610415578063f2fde38b14610366578063f8b2cb4f1461032c578063fb272a92146102a75763fcec67691461026357600080fd5b346102a25760206003193601126102a2576001600160a01b03610284611be0565b166000526015602052602060ff604060002054166040519015158152f35b600080fd5b346102a25760206003193601126102a2576001600160a01b036102c8611be0565b6102d06121d1565b166102dc811515611d61565b6001600160a01b036003548273ffffffffffffffffffffffffffffffffffffffff19821617600355167f5618d15b3d3478bef54c48bfa1cbb365001987a237e573422477a43597b496bd600080a3005b346102a25760206003193601126102a2576001600160a01b0361034d611be0565b16600052600b6020526020604060002054604051908152f35b346102a25760206003193601126102a2576001600160a01b03610387611be0565b61038f6121d1565b1680156103e6576001600160a01b036000548273ffffffffffffffffffffffffffffffffffffffff19821617600055167f8be0079c531659141344cd1fd0a4f28419497f9722a3daafe3b4186f6b6457e0600080a3005b7f1e4fbdf700000000000000000000000000000000000000000000000000000000600052600060045260246000fd5b346102a25760206003193601126102a2576001600160a01b03610436611be0565b16600052600d6020526020604060002054604051908152f35b346102a25760206003193601126102a2576104a661046b611be0565b6001600160a01b0360035416331480156104a8575b61048990611d16565b61049d6001600160a01b0382161515611d61565b6009549061214f565b005b506104896001600160a01b036000541633149050610480565b346102a25760206003193601126102a2577f0ba2611e03c210377c7111f9c3f59febd751b32e081daa8d153f9e5aefc4d44a60406004356105006121d1565b61050b811515611c25565b61051481612213565b600654908060065582519182526020820152a1005b346102a25760206003193601126102a2576001600160a01b0361054a611be0565b166000526012602052602060ff604060002054166040519015158152f35b346102a25760206003193601126102a2576104a6610584611be0565b61058c6121d1565b6105a06001600160a01b0382161515611d61565b600a549061204b565b346102a25760206003193601126102a2576001600160a01b036105ca611be0565b16600052600c6020526020604060002054604051908152f35b346102a25760206003193601126102a2577facba83ff03168f1bea2744b3d7782dee7cdb7d1f61a2f188fac2dfb044ad91a960406004356106226121d1565b61062d811515611c25565b61063681612213565b600a549080600a5582519182526020820152a1005b346102a25760006003193601126102a2576020600954604051908152f35b346102a25760406003193601126102a2576001600160a01b0361068a611be0565b1660005260176020526040600020602435600052602052602060ff604060002054166040519015158152f35b346102a25760406003193601126102a2576104a66106d2611be0565b6001600160a01b0360035416331480156106f9575b6106f090611d16565b602435906120cd565b506106f06001600160a01b0360005416331490506106e7565b346102a2576104a661072336611bf6565b6001600160a01b0360025416331480156107ab575b61074190611d16565b7fcc3839c65af66c01694bedefc47e2c3871dedd5489b4432fb8b876f92bcd26fe60206001600160a01b0384169261077a841515611d61565b836000526013825261079d8160406000209060ff60ff1983541691151516179055565b6040519015158152a2612268565b506107416001600160a01b036000541633149050610738565b346102a25760206003193601126102a25760e06001600160a01b036107e7611be0565b600060c06040516107f781611c8a565b8281528260208201528260408201528260608201528260808201528260a082015201521680600052600b6020526040600020549080600052600c6020526040600020549080600052600d60205260406000205481600052600e60205260406000205482600052600f602052604060002054918360005260106020526040600020549360005260116020526040600020549460c060405161089681611c8a565b8881526020810192835260408101938452606081019485526080810195865260a08101968752019586526040519687525160208701525160408601525160608501525160808401525160a08301525160c0820152f35b346102a2576104a661093f61090036611bf6565b61090b9291926121d1565b6001600160a01b038316610920811515611d61565b600052601460205260406000209060ff60ff1983541691151516179055565b612268565b346102a25760206003193601126102a2577f97a0e071347446e2194ff9ad20cc9cacd1bf66e7ac6dd90548b9a2b545870a2c60406004356109836121d1565b61098e811515611c25565b61099781612213565b600954908060095582519182526020820152a1005b346102a25760006003193601126102a25760206001600160a01b0360005416604051908152f35b346102a25760206003193601126102a2576004356109ef611dac565b6001600160a01b03600354168015610bfb578115610bb7576020602491604051928380927f5fb971fe0000000000000000000000000000000000000000000000000000000082523360048301525afa8015610bab578291600091610b76575b5010610b325760405160208101903360601b825282603482015260348152610a77605482611cd5565b51902080600052601a60205260ff60406000205416610aee57600052601a6020526040600020600160ff19825416179055610ab4600a543361204b565b600a5460405191825260208201527f951f39974d404f2469a2c5eb978dfc1f14816a992e303940d6691ba1f800b22a60403392a260018055005b606460405162461bcd60e51b815260206004820152601660248201527f52657761726420616c726561647920636c61696d6564000000000000000000006044820152fd5b606460405162461bcd60e51b815260206004820152601460248201527f487970657263657274206e6f74206d696e7465640000000000000000000000006044820152fd5b9150506020813d602011610ba3575b81610b9260209383611cd5565b810103126102a25781905183610a4e565b3d9150610b85565b6040513d6000823e3d90fd5b606460405162461bcd60e51b815260206004820152601860248201527f496e76616c696420687970657263657274206e756d62657200000000000000006044820152fd5b606460405162461bcd60e51b815260206004820152601260248201527f5375626d697373696f6e206e6f742073657400000000000000000000000000006044820152fd5b346102a25760006003193601126102a25760206001600160a01b0360035416604051908152f35b346102a25760206003193601126102a257600435600052601a602052602060ff604060002054166040519015158152f35b346102a25760206003193601126102a2576001600160a01b03610cb8611be0565b610cc06121d1565b16610ccc811515611d61565b6001600160a01b036004548273ffffffffffffffffffffffffffffffffffffffff19821617600455167f4ab5be82436d353e61ca18726e984e561f5c1cc7c6d38b29d2553c790434705a600080a3005b346102a25760006003193601126102a2576020600a54604051908152f35b346102a25760406003193601126102a257610d53611be0565b602435906001600160a01b036003541633148015610dfe575b610d7590611d16565b6001600160a01b03811690610d8b821515611d61565b610d96831515611c25565b600854838102938185041490151715610dcf5782610db391611fc9565b6000526011602052610dcb6040600020918254611c7d565b9055005b7f4e487b7100000000000000000000000000000000000000000000000000000000600052601160045260246000fd5b50610d756001600160a01b036000541633149050610d6c565b346102a25760006003193601126102a257610e306121d1565b60006001600160a01b03815473ffffffffffffffffffffffffffffffffffffffff1981168355167f8be0079c531659141344cd1fd0a4f28419497f9722a3daafe3b4186f6b6457e08280a3005b346102a25760206003193601126102a2576001600160a01b03610e9e611be0565b1660005260106020526020604060002054604051908152f35b346102a25760006003193601126102a25760206001600160a01b0360025416604051908152f35b346102a25760206003193601126102a2576001600160a01b03610eff611be0565b16600052600f6020526020604060002054604051908152f35b346102a25760206003193601126102a2576001600160a01b03610f39611be0565b166000526019602052602060ff604060002054166040519015158152f35b346102a25760006003193601126102a25760206001600160a01b0360045416604051908152f35b346102a25760206003193601126102a2576060610f99611be0565b6001600160a01b0381169081600052601260205260ff60406000205416916000526013602052610fd160ff6040600020541691611de7565b9060405192151583521515602083015215156040820152f35b346102a25760606003193601126102a2577f246173514089d16e18ec0ac77ebd48a60f2f43cf55e2436266e925590d81cd85606060043560443560243561102f6121d1565b61103883612213565b61104181612213565b61104a82612213565b82600555806006558160075560405192835260208301526040820152a1005b346102a25760206003193601126102a25760a06001600160a01b0361108c611be0565b166000908152600e6020908152604080832054600f8352818420546010845282852054600b855283862054600d865295849020548451938452948301919091529181019190915260608101929092526080820152f35b346102a25760406003193601126102a2576110fb611be0565b602435906001600160a01b0382168092036102a2576001600160a01b039081600354163314801561120a575b61113090611d16565b1680151580611201575b61114390611d61565b61114f82821415611d61565b8060005260186020526001600160a01b03604060002054166111bd5780600052601860205260406000208273ffffffffffffffffffffffffffffffffffffffff198254161790557f5f1ca2fcc108b751843a763e60d2201f593516109d7dbb1b700468f2d4190bb7600080a3005b606460405162461bcd60e51b815260206004820152601b60248201527f526566657272616c20616c7265616479207265676973746572656400000000006044820152fd5b5081151561113a565b5060005482163314611127565b346102a25760006003193601126102a2576020600554604051908152f35b346102a25760206003193601126102a2576001600160a01b03611256611be0565b1660005260166020526020604060002054604051908152f35b346102a25760006003193601126102a2576020600654604051908152f35b346102a25760206003193601126102a2576001600160a01b036112ae611be0565b6112b66121d1565b166112c2811515611d61565b6001600160a01b036002548273ffffffffffffffffffffffffffffffffffffffff19821617600255167f05f472e59b83f0c85014d6a7cd671172b33cf16294c73442fcb0fdc4bb2f36b8600080a3005b346102a25760206003193601126102a2576001600160a01b03611333611be0565b16600052601860205260206001600160a01b0360406000205416604051908152f35b346102a2576104a661136636611bf6565b6001600160a01b0360025416331480156114d4575b61138490611d16565b7fd1148eed154e83a9726ba99e44569959444cdd245759c5dc1dd5f6b662a4bb0760206001600160a01b038416926113bd841515611d61565b80156114ab5783600052601682528360406000205480151580611495575b611415575b50600052601682524260406000205583600052601282526040600020600160ff198254161790556040519015158152a2612268565b61144c62015180916114296007548a611f47565b60075484600052600f87526114446040600020918254611c7d565b905542611c70565b04801561148d575b60407fbed2e721199f29579fccd5fd78b46ec11f3136f6cfd1e46ce44cfeab9383e9e09160075490825191825286820152a283876113e0565b506001611454565b5062093a806114a48242611c70565b11156113db565b8360005260128252604060002060ff19815416905583600052601682526000604081205561079d565b506113846001600160a01b03600054163314905061137b565b346102a25760206003193601126102a2577f62ec281de63e34e58d9e3e04c415a28759615452e4d445c98824c10425dfe6b4604060043561152c6121d1565b611537811515611c25565b61154081612213565b600854908060085582519182526020820152a1005b346102a25760006003193601126102a2576020600754604051908152f35b346102a25760206003193601126102a2576001600160a01b03611594611be0565b16600052600e6020526020604060002054604051908152f35b346102a25760206003193601126102a2576001600160a01b036115ce611be0565b166000526013602052602060ff604060002054166040519015158152f35b346102a25760006003193601126102a2576020600854604051908152f35b346102a25760206003193601126102a2576001600160a01b0361162b611be0565b1660005260116020526020604060002054604051908152f35b346102a25760406003193601126102a25761165d611be0565b602435906001600160a01b036002541633148015611994575b61167f90611d16565b600182101580611989575b15611945576001600160a01b038116906116a5821515611d61565b6116ae81611de7565b156119015781600052601760205260406000208360005260205260ff604060002054166118bd578160005260176020526040600020836000526020526040600020600160ff1982541617905561170660055482611e3e565b60055482600052600e6020526117226040600020918254611c7d565b905582827fd88fdc5ed03a23aa2944456eeb92a5d48553863e1afde4d94a559602112771516020600554604051908152a38160005260186020526001600160a01b036040600020541692831515806118a4575b61177b57005b8260005260196020526040600020600160ff198254161790556117a060065485611ec5565b6006548460005260106020526117bc6040600020918254611c7d565b905560016006549184867fb2dee5f49e7a09a5d7c95cd4dd5dc6410eea65d4e14519d6d3a6e14c8cf0e0e96020604051878152a384867f3e555c80c86d940c198c007f11f8ca0cedcbc1f0b2f0b0a7405a67493dffe4dc6020604051878152a31461182357005b61182c91611ec5565b6006548160005260106020526118486040600020918254611c7d565b90557f3e555c80c86d940c198c007f11f8ca0cedcbc1f0b2f0b0a7405a67493dffe4dc602060065484847fb2dee5f49e7a09a5d7c95cd4dd5dc6410eea65d4e14519d6d3a6e14c8cf0e0e984604051858152a3604051908152a3005b5082600052601960205260ff6040600020541615611775565b606460405162461bcd60e51b815260206004820152601560248201527f4c6576656c20616c726561647920636c61696d656400000000000000000000006044820152fd5b606460405162461bcd60e51b815260206004820152601d60248201527f55736572206e6f7420656c696769626c6520666f7220726577617264730000006044820152fd5b606460405162461bcd60e51b815260206004820152601460248201527f5245574152445f5f496e76616c69644c6576656c0000000000000000000000006044820152fd5b50600a82111561168a565b5061167f6001600160a01b036000541633149050611676565b346102a25760006003193601126102a25760206040516001600160a01b037f0000000000000000000000000000000000000000000000000000000000000000168152f35b346102a25760206003193601126102a257600435611a0d611dac565b611a18811515611c25565b33600052600b6020528060406000205410611b9c5733600052600b6020526040600020611a46828254611c70565b905533600052600d6020526040600020611a61828254611c7d565b90556040517f40c10f1900000000000000000000000000000000000000000000000000000000815233600482015281602482015260208160448160006001600160a01b037f0000000000000000000000000000000000000000000000000000000000000000165af1908115610bab57600091611b5a575b5015611b16576040519081524260208201527fdacbdde355ba930696a362ea6738feb9f8bd52dfb3d81947558fd3217e23e32560403392a260018055005b606460405162461bcd60e51b815260206004820152601360248201527f52657761726420636c61696d206661696c6564000000000000000000000000006044820152fd5b6020813d602011611b94575b81611b7360209383611cd5565b81010312611b905751908115158203611b8d575082611ad8565b80fd5b5080fd5b3d9150611b66565b606460405162461bcd60e51b815260206004820152601b60248201527f5245574152445f5f496e73756666696369656e7442616c616e636500000000006044820152fd5b600435906001600160a01b03821682036102a257565b60031960409101126102a2576004356001600160a01b03811681036102a2579060243580151581036102a25790565b15611c2c57565b606460405162461bcd60e51b815260206004820152601260248201527f5245574152445f5f5a65726f416d6f756e7400000000000000000000000000006044820152fd5b91908203918211610dcf57565b91908201809211610dcf57565b60e0810190811067ffffffffffffffff821117611ca657604052565b7f4e487b7100000000000000000000000000000000000000000000000000000000600052604160045260246000fd5b90601f7fffffffffffffffffffffffffffffffffffffffffffffffffffffffffffffffe0910116810190811067ffffffffffffffff821117611ca657604052565b15611d1d57565b606460405162461bcd60e51b815260206004820152601460248201527f5245574152445f5f556e617574686f72697a65640000000000000000000000006044820152fd5b15611d6857565b606460405162461bcd60e51b815260206004820152601660248201527f5245574152445f5f496e76616c696441646472657373000000000000000000006044820152fd5b600260015414611dbd576002600155565b7f3ee5aeb50000000000000000000000000000000000000000000000000000000060005260046000fd5b6001600160a01b031680600052601460205260ff60406000205416611e385780600052601260205260ff604060002054169081611e22575090565b9050600052601360205260ff6040600020541690565b50600190565b906000918115611ec0577f6923e5879e7217b6481afa33e604ad52afcd215fb632497c2765f7368fa1a09d916001600160a01b036060921693848152600b60205260408120611e8e838254611c7d565b9055848152600c60205260408120611ea7838254611c7d565b90555060405190815260006020820152426040820152a2565b505050565b906000918115611ec0577f6923e5879e7217b6481afa33e604ad52afcd215fb632497c2765f7368fa1a09d916001600160a01b036060921693848152600b60205260408120611f15838254611c7d565b9055848152600c60205260408120611f2e838254611c7d565b90555060405190815260026020820152426040820152a2565b906000918115611ec0577f6923e5879e7217b6481afa33e604ad52afcd215fb632497c2765f7368fa1a09d916001600160a01b036060921693848152600b60205260408120611f97838254611c7d565b9055848152600c60205260408120611fb0838254611c7d565b90555060405190815260016020820152426040820152a2565b906000918115611ec0577f6923e5879e7217b6481afa33e604ad52afcd215fb632497c2765f7368fa1a09d916001600160a01b036060921693848152600b60205260408120612019838254611c7d565b9055848152600c60205260408120612032838254611c7d565b90555060405190815260036020820152426040820152a2565b906000918115611ec0577f6923e5879e7217b6481afa33e604ad52afcd215fb632497c2765f7368fa1a09d916001600160a01b036060921693848152600b6020526040812061209b838254611c7d565b9055848152600c602052604081206120b4838254611c7d565b90555060405190815260056020820152426040820152a2565b906000918115611ec0577f6923e5879e7217b6481afa33e604ad52afcd215fb632497c2765f7368fa1a09d916001600160a01b036060921693848152600b6020526040812061211d838254611c7d565b9055848152600c60205260408120612136838254611c7d565b90555060405190815260066020820152426040820152a2565b906000918115611ec0577f6923e5879e7217b6481afa33e604ad52afcd215fb632497c2765f7368fa1a09d916001600160a01b036060921693848152600b6020526040812061219f838254611c7d565b9055848152600c602052604081206121b8838254611c7d565b90555060405190815260046020820152426040820152a2565b6001600160a01b036000541633036121e557565b7f118cdaa7000000000000000000000000000000000000000000000000000000006000523360045260246000fd5b683635c9adc5dea000001061222457565b606460405162461bcd60e51b815260206004820152601d60248201527f5245574152445f5f457863657373697665526577617264416d6f756e740000006044820152fd5b7f4be847f8aaabddde8e8fe98eb5abe743236d75160ac686d09206ac662a346daf60406001600160a01b0361229c84611de7565b9316928360005260156020526122c281836000209060ff60ff1983541691151516179055565b83600052601460205260ff8260002054168251911515825215156020820152a256fea264697066735822122039324273fe6a8fb11b40cd6f2e840758d427979d7d2b0657065d4ba675fef85764736f6c634300081c0033","opcodes":"PUSH1 0xA0 CALLVALUE PUSH2 0x197 JUMPI PUSH1 0x1F PUSH2 0x24E1 CODESIZE DUP2 SWAP1 SUB SWAP2 DUP3 ADD PUSH1 0x1F NOT AND DUP4 ADD SWAP2 PUSH1 0x1 PUSH1 0x1 PUSH1 0x40 SHL SUB DUP4 GT DUP5 DUP5 LT OR PUSH2 0x19C JUMPI DUP1 DUP5 SWAP3 PUSH1 0x40 SWAP5 DUP6 MSTORE DUP4 CODECOPY DUP2 ADD SUB SLT PUSH2 0x197 JUMPI PUSH2 0x52 PUSH1 0x20 PUSH2 0x4B DUP4 PUSH2 0x1B2 JUMP JUMPDEST SWAP3 ADD PUSH2 0x1B2 JUMP JUMPDEST SWAP1 CALLER ISZERO PUSH2 0x181 JUMPI PUSH1 0x0 DUP1 SLOAD CALLER PUSH1 0x1 PUSH1 0x1 PUSH1 0xA0 SHL SUB NOT DUP3 AND DUP2 OR DUP4 SSTORE PUSH1 0x40 MLOAD SWAP4 SWAP3 SWAP1 SWAP2 PUSH1 0x1 PUSH1 0x1 PUSH1 0xA0 SHL SUB AND SWAP1 PUSH32 0x8BE0079C531659141344CD1FD0A4F28419497F9722A3DAAFE3B4186F6B6457E0 SWAP1 DUP1 LOG3 PUSH1 0x1 DUP1 SSTORE PUSH8 0x8AC7230489E80000 PUSH1 0x5 DUP2 SWAP1 SSTORE PUSH8 0x29A2241AF62C0000 PUSH1 0x6 DUP2 SWAP1 SSTORE PUSH1 0x7 SSTORE PUSH8 0x4563918244F40000 PUSH1 0x8 SSTORE PUSH8 0xDE0B6B3A7640000 PUSH1 0x9 SSTORE PUSH1 0xA SSTORE PUSH1 0x1 PUSH1 0x1 PUSH1 0xA0 SHL SUB AND SWAP1 DUP2 ISZERO PUSH2 0x13F JUMPI POP PUSH1 0x80 MSTORE PUSH1 0x2 DUP1 SLOAD PUSH1 0x1 PUSH1 0x1 PUSH1 0xA0 SHL SUB SWAP3 SWAP1 SWAP3 AND PUSH1 0x1 PUSH1 0x1 PUSH1 0xA0 SHL SUB NOT SWAP3 DUP4 AND OR SWAP1 SSTORE PUSH1 0x4 DUP1 SLOAD CALLER SWAP3 AND SWAP2 SWAP1 SWAP2 OR SWAP1 SSTORE PUSH1 0x40 MLOAD PUSH2 0x231A SWAP1 DUP2 PUSH2 0x1C7 DUP3 CODECOPY PUSH1 0x80 MLOAD DUP2 DUP2 DUP2 PUSH2 0x19CD ADD MSTORE PUSH2 0x1AA7 ADD MSTORE RETURN JUMPDEST PUSH3 0x461BCD PUSH1 0xE5 SHL DUP2 MSTORE PUSH1 0x20 PUSH1 0x4 DUP3 ADD MSTORE PUSH1 0x16 PUSH1 0x24 DUP3 ADD MSTORE PUSH32 0x5245574152445F5F496E76616C69644164647265737300000000000000000000 PUSH1 0x44 DUP3 ADD MSTORE PUSH1 0x64 SWAP1 REVERT JUMPDEST PUSH4 0x1E4FBDF7 PUSH1 0xE0 SHL PUSH1 0x0 MSTORE PUSH1 0x0 PUSH1 0x4 MSTORE PUSH1 0x24 PUSH1 0x0 REVERT JUMPDEST PUSH1 0x0 DUP1 REVERT JUMPDEST PUSH4 0x4E487B71 PUSH1 0xE0 SHL PUSH1 0x0 MSTORE PUSH1 0x41 PUSH1 0x4 MSTORE PUSH1 0x24 PUSH1 0x0 REVERT JUMPDEST MLOAD SWAP1 PUSH1 0x1 PUSH1 0x1 PUSH1 0xA0 SHL SUB DUP3 AND DUP3 SUB PUSH2 0x197 JUMPI JUMP INVALID PUSH1 0x80 PUSH1 0x40 MSTORE PUSH1 0x4 CALLDATASIZE LT ISZERO PUSH2 0x12 JUMPI PUSH1 0x0 DUP1 REVERT JUMPDEST PUSH1 0x0 CALLDATALOAD PUSH1 0xE0 SHR DUP1 PUSH4 0x962EF79 EQ PUSH2 0x19F1 JUMPI DUP1 PUSH4 0x14CDE16E EQ PUSH2 0x19AD JUMPI DUP1 PUSH4 0x21C838EF EQ PUSH2 0x1644 JUMPI DUP1 PUSH4 0x22B31619 EQ PUSH2 0x160A JUMPI DUP1 PUSH4 0x22C1F447 EQ PUSH2 0x15EC JUMPI DUP1 PUSH4 0x26224C64 EQ PUSH2 0x32C JUMPI DUP1 PUSH4 0x2F6F92B3 EQ PUSH2 0x15AD JUMPI DUP1 PUSH4 0x3AEC4473 EQ PUSH2 0x1573 JUMPI DUP1 PUSH4 0x3EFE458A EQ PUSH2 0x1555 JUMPI DUP1 PUSH4 0x441EACBA EQ PUSH2 0x14ED JUMPI DUP1 PUSH4 0x47C24FCF EQ PUSH2 0x1355 JUMPI DUP1 PUSH4 0x4A3B68CC EQ PUSH2 0x1312 JUMPI DUP1 PUSH4 0x4A9FEFC7 EQ PUSH2 0x1312 JUMPI DUP1 PUSH4 0x4C5A3F1B EQ PUSH2 0x128D JUMPI DUP1 PUSH4 0x4D683674 EQ PUSH2 0x126F JUMPI DUP1 PUSH4 0x4F3F2832 EQ PUSH2 0x1235 JUMPI DUP1 PUSH4 0x5001D45F EQ PUSH2 0x1217 JUMPI DUP1 PUSH4 0x5603B9F9 EQ PUSH2 0x10E2 JUMPI DUP1 PUSH4 0x5B651C48 EQ PUSH2 0x1069 JUMPI DUP1 PUSH4 0x5FD6AC81 EQ PUSH2 0xFEA JUMPI DUP1 PUSH4 0x6103681A EQ PUSH2 0xF7E JUMPI DUP1 PUSH4 0x61D027B3 EQ PUSH2 0xF57 JUMPI DUP1 PUSH4 0x62D2EEA2 EQ PUSH2 0xF18 JUMPI DUP1 PUSH4 0x649ACA4A EQ PUSH2 0x5A9 JUMPI DUP1 PUSH4 0x64F9386A EQ PUSH2 0xEDE JUMPI DUP1 PUSH4 0x6588103B EQ PUSH2 0xEB7 JUMPI DUP1 PUSH4 0x69E23CED EQ PUSH2 0xE7D JUMPI DUP1 PUSH4 0x715018A6 EQ PUSH2 0xE17 JUMPI DUP1 PUSH4 0x76E17483 EQ PUSH2 0xD3A JUMPI DUP1 PUSH4 0x794882D1 EQ PUSH2 0xD1C JUMPI DUP1 PUSH4 0x7F51BB1F EQ PUSH2 0xC97 JUMPI DUP1 PUSH4 0x823888D1 EQ PUSH2 0xC66 JUMPI DUP1 PUSH4 0x842CE381 EQ PUSH2 0xC3F JUMPI DUP1 PUSH4 0x89E0E554 EQ PUSH2 0x9D3 JUMPI DUP1 PUSH4 0x8DA5CB5B EQ PUSH2 0x9AC JUMPI DUP1 PUSH4 0x95B61987 EQ PUSH2 0x944 JUMPI DUP1 PUSH4 0x9AFDF64D EQ PUSH2 0x8EC JUMPI DUP1 PUSH4 0x9B13027D EQ PUSH2 0x7C4 JUMPI DUP1 PUSH4 0xA1905A07 EQ PUSH2 0x712 JUMPI DUP1 PUSH4 0xA8031A1D EQ PUSH2 0x6B6 JUMPI DUP1 PUSH4 0xAA58152D EQ PUSH2 0x669 JUMPI DUP1 PUSH4 0xB49E80F4 EQ PUSH2 0x64B JUMPI DUP1 PUSH4 0xC0CCC0F4 EQ PUSH2 0x5E3 JUMPI DUP1 PUSH4 0xC107E3B4 EQ PUSH2 0x5A9 JUMPI DUP1 PUSH4 0xD5B3081B EQ PUSH2 0x568 JUMPI DUP1 PUSH4 0xDAC773C0 EQ PUSH2 0x529 JUMPI DUP1 PUSH4 0xE554E1AD EQ PUSH2 0x4C1 JUMPI DUP1 PUSH4 0xE9ECFEF3 EQ PUSH2 0x44F JUMPI DUP1 PUSH4 0xEF5D9AE8 EQ PUSH2 0x415 JUMPI DUP1 PUSH4 0xF2FDE38B EQ PUSH2 0x366 JUMPI DUP1 PUSH4 0xF8B2CB4F EQ PUSH2 0x32C JUMPI DUP1 PUSH4 0xFB272A92 EQ PUSH2 0x2A7 JUMPI PUSH4 0xFCEC6769 EQ PUSH2 0x263 JUMPI PUSH1 0x0 DUP1 REVERT JUMPDEST CALLVALUE PUSH2 0x2A2 JUMPI PUSH1 0x20 PUSH1 0x3 NOT CALLDATASIZE ADD SLT PUSH2 0x2A2 JUMPI PUSH1 0x1 PUSH1 0x1 PUSH1 0xA0 SHL SUB PUSH2 0x284 PUSH2 0x1BE0 JUMP JUMPDEST AND PUSH1 0x0 MSTORE PUSH1 0x15 PUSH1 0x20 MSTORE PUSH1 0x20 PUSH1 0xFF PUSH1 0x40 PUSH1 0x0 KECCAK256 SLOAD AND PUSH1 0x40 MLOAD SWAP1 ISZERO ISZERO DUP2 MSTORE RETURN JUMPDEST PUSH1 0x0 DUP1 REVERT JUMPDEST CALLVALUE PUSH2 0x2A2 JUMPI PUSH1 0x20 PUSH1 0x3 NOT CALLDATASIZE ADD SLT PUSH2 0x2A2 JUMPI PUSH1 0x1 PUSH1 0x1 PUSH1 0xA0 SHL SUB PUSH2 0x2C8 PUSH2 0x1BE0 JUMP JUMPDEST PUSH2 0x2D0 PUSH2 0x21D1 JUMP JUMPDEST AND PUSH2 0x2DC DUP2 ISZERO ISZERO PUSH2 0x1D61 JUMP JUMPDEST PUSH1 0x1 PUSH1 0x1 PUSH1 0xA0 SHL SUB PUSH1 0x3 SLOAD DUP3 PUSH20 0xFFFFFFFFFFFFFFFFFFFFFFFFFFFFFFFFFFFFFFFF NOT DUP3 AND OR PUSH1 0x3 SSTORE AND PUSH32 0x5618D15B3D3478BEF54C48BFA1CBB365001987A237E573422477A43597B496BD PUSH1 0x0 DUP1 LOG3 STOP JUMPDEST CALLVALUE PUSH2 0x2A2 JUMPI PUSH1 0x20 PUSH1 0x3 NOT CALLDATASIZE ADD SLT PUSH2 0x2A2 JUMPI PUSH1 0x1 PUSH1 0x1 PUSH1 0xA0 SHL SUB PUSH2 0x34D PUSH2 0x1BE0 JUMP JUMPDEST AND PUSH1 0x0 MSTORE PUSH1 0xB PUSH1 0x20 MSTORE PUSH1 0x20 PUSH1 0x40 PUSH1 0x0 KECCAK256 SLOAD PUSH1 0x40 MLOAD SWAP1 DUP2 MSTORE RETURN JUMPDEST CALLVALUE PUSH2 0x2A2 JUMPI PUSH1 0x20 PUSH1 0x3 NOT CALLDATASIZE ADD SLT PUSH2 0x2A2 JUMPI PUSH1 0x1 PUSH1 0x1 PUSH1 0xA0 SHL SUB PUSH2 0x387 PUSH2 0x1BE0 JUMP JUMPDEST PUSH2 0x38F PUSH2 0x21D1 JUMP JUMPDEST AND DUP1 ISZERO PUSH2 0x3E6 JUMPI PUSH1 0x1 PUSH1 0x1 PUSH1 0xA0 SHL SUB PUSH1 0x0 SLOAD DUP3 PUSH20 0xFFFFFFFFFFFFFFFFFFFFFFFFFFFFFFFFFFFFFFFF NOT DUP3 AND OR PUSH1 0x0 SSTORE AND PUSH32 0x8BE0079C531659141344CD1FD0A4F28419497F9722A3DAAFE3B4186F6B6457E0 PUSH1 0x0 DUP1 LOG3 STOP JUMPDEST PUSH32 0x1E4FBDF700000000000000000000000000000000000000000000000000000000 PUSH1 0x0 MSTORE PUSH1 0x0 PUSH1 0x4 MSTORE PUSH1 0x24 PUSH1 0x0 REVERT JUMPDEST CALLVALUE PUSH2 0x2A2 JUMPI PUSH1 0x20 PUSH1 0x3 NOT CALLDATASIZE ADD SLT PUSH2 0x2A2 JUMPI PUSH1 0x1 PUSH1 0x1 PUSH1 0xA0 SHL SUB PUSH2 0x436 PUSH2 0x1BE0 JUMP JUMPDEST AND PUSH1 0x0 MSTORE PUSH1 0xD PUSH1 0x20 MSTORE PUSH1 0x20 PUSH1 0x40 PUSH1 0x0 KECCAK256 SLOAD PUSH1 0x40 MLOAD SWAP1 DUP2 MSTORE RETURN JUMPDEST CALLVALUE PUSH2 0x2A2 JUMPI PUSH1 0x20 PUSH1 0x3 NOT CALLDATASIZE ADD SLT PUSH2 0x2A2 JUMPI PUSH2 0x4A6 PUSH2 0x46B PUSH2 0x1BE0 JUMP JUMPDEST PUSH1 0x1 PUSH1 0x1 PUSH1 0xA0 SHL SUB PUSH1 0x3 SLOAD AND CALLER EQ DUP1 ISZERO PUSH2 0x4A8 JUMPI JUMPDEST PUSH2 0x489 SWAP1 PUSH2 0x1D16 JUMP JUMPDEST PUSH2 0x49D PUSH1 0x1 PUSH1 0x1 PUSH1 0xA0 SHL SUB DUP3 AND ISZERO ISZERO PUSH2 0x1D61 JUMP JUMPDEST PUSH1 0x9 SLOAD SWAP1 PUSH2 0x214F JUMP JUMPDEST STOP JUMPDEST POP PUSH2 0x489 PUSH1 0x1 PUSH1 0x1 PUSH1 0xA0 SHL SUB PUSH1 0x0 SLOAD AND CALLER EQ SWAP1 POP PUSH2 0x480 JUMP JUMPDEST CALLVALUE PUSH2 0x2A2 JUMPI PUSH1 0x20 PUSH1 0x3 NOT CALLDATASIZE ADD SLT PUSH2 0x2A2 JUMPI PUSH32 0xBA2611E03C210377C7111F9C3F59FEBD751B32E081DAA8D153F9E5AEFC4D44A PUSH1 0x40 PUSH1 0x4 CALLDATALOAD PUSH2 0x500 PUSH2 0x21D1 JUMP JUMPDEST PUSH2 0x50B DUP2 ISZERO ISZERO PUSH2 0x1C25 JUMP JUMPDEST PUSH2 0x514 DUP2 PUSH2 0x2213 JUMP JUMPDEST PUSH1 0x6 SLOAD SWAP1 DUP1 PUSH1 0x6 SSTORE DUP3 MLOAD SWAP2 DUP3 MSTORE PUSH1 0x20 DUP3 ADD MSTORE LOG1 STOP JUMPDEST CALLVALUE PUSH2 0x2A2 JUMPI PUSH1 0x20 PUSH1 0x3 NOT CALLDATASIZE ADD SLT PUSH2 0x2A2 JUMPI PUSH1 0x1 PUSH1 0x1 PUSH1 0xA0 SHL SUB PUSH2 0x54A PUSH2 0x1BE0 JUMP JUMPDEST AND PUSH1 0x0 MSTORE PUSH1 0x12 PUSH1 0x20 MSTORE PUSH1 0x20 PUSH1 0xFF PUSH1 0x40 PUSH1 0x0 KECCAK256 SLOAD AND PUSH1 0x40 MLOAD SWAP1 ISZERO ISZERO DUP2 MSTORE RETURN JUMPDEST CALLVALUE PUSH2 0x2A2 JUMPI PUSH1 0x20 PUSH1 0x3 NOT CALLDATASIZE ADD SLT PUSH2 0x2A2 JUMPI PUSH2 0x4A6 PUSH2 0x584 PUSH2 0x1BE0 JUMP JUMPDEST PUSH2 0x58C PUSH2 0x21D1 JUMP JUMPDEST PUSH2 0x5A0 PUSH1 0x1 PUSH1 0x1 PUSH1 0xA0 SHL SUB DUP3 AND ISZERO ISZERO PUSH2 0x1D61 JUMP JUMPDEST PUSH1 0xA SLOAD SWAP1 PUSH2 0x204B JUMP JUMPDEST CALLVALUE PUSH2 0x2A2 JUMPI PUSH1 0x20 PUSH1 0x3 NOT CALLDATASIZE ADD SLT PUSH2 0x2A2 JUMPI PUSH1 0x1 PUSH1 0x1 PUSH1 0xA0 SHL SUB PUSH2 0x5CA PUSH2 0x1BE0 JUMP JUMPDEST AND PUSH1 0x0 MSTORE PUSH1 0xC PUSH1 0x20 MSTORE PUSH1 0x20 PUSH1 0x40 PUSH1 0x0 KECCAK256 SLOAD PUSH1 0x40 MLOAD SWAP1 DUP2 MSTORE RETURN JUMPDEST CALLVALUE PUSH2 0x2A2 JUMPI PUSH1 0x20 PUSH1 0x3 NOT CALLDATASIZE ADD SLT PUSH2 0x2A2 JUMPI PUSH32 0xACBA83FF03168F1BEA2744B3D7782DEE7CDB7D1F61A2F188FAC2DFB044AD91A9 PUSH1 0x40 PUSH1 0x4 CALLDATALOAD PUSH2 0x622 PUSH2 0x21D1 JUMP JUMPDEST PUSH2 0x62D DUP2 ISZERO ISZERO PUSH2 0x1C25 JUMP JUMPDEST PUSH2 0x636 DUP2 PUSH2 0x2213 JUMP JUMPDEST PUSH1 0xA SLOAD SWAP1 DUP1 PUSH1 0xA SSTORE DUP3 MLOAD SWAP2 DUP3 MSTORE PUSH1 0x20 DUP3 ADD MSTORE LOG1 STOP JUMPDEST CALLVALUE PUSH2 0x2A2 JUMPI PUSH1 0x0 PUSH1 0x3 NOT CALLDATASIZE ADD SLT PUSH2 0x2A2 JUMPI PUSH1 0x20 PUSH1 0x9 SLOAD PUSH1 0x40 MLOAD SWAP1 DUP2 MSTORE RETURN JUMPDEST CALLVALUE PUSH2 0x2A2 JUMPI PUSH1 0x40 PUSH1 0x3 NOT CALLDATASIZE ADD SLT PUSH2 0x2A2 JUMPI PUSH1 0x1 PUSH1 0x1 PUSH1 0xA0 SHL SUB PUSH2 0x68A PUSH2 0x1BE0 JUMP JUMPDEST AND PUSH1 0x0 MSTORE PUSH1 0x17 PUSH1 0x20 MSTORE PUSH1 0x40 PUSH1 0x0 KECCAK256 PUSH1 0x24 CALLDATALOAD PUSH1 0x0 MSTORE PUSH1 0x20 MSTORE PUSH1 0x20 PUSH1 0xFF PUSH1 0x40 PUSH1 0x0 KECCAK256 SLOAD AND PUSH1 0x40 MLOAD SWAP1 ISZERO ISZERO DUP2 MSTORE RETURN JUMPDEST CALLVALUE PUSH2 0x2A2 JUMPI PUSH1 0x40 PUSH1 0x3 NOT CALLDATASIZE ADD SLT PUSH2 0x2A2 JUMPI PUSH2 0x4A6 PUSH2 0x6D2 PUSH2 0x1BE0 JUMP JUMPDEST PUSH1 0x1 PUSH1 0x1 PUSH1 0xA0 SHL SUB PUSH1 0x3 SLOAD AND CALLER EQ DUP1 ISZERO PUSH2 0x6F9 JUMPI JUMPDEST PUSH2 0x6F0 SWAP1 PUSH2 0x1D16 JUMP JUMPDEST PUSH1 0x24 CALLDATALOAD SWAP1 PUSH2 0x20CD JUMP JUMPDEST POP PUSH2 0x6F0 PUSH1 0x1 PUSH1 0x1 PUSH1 0xA0 SHL SUB PUSH1 0x0 SLOAD AND CALLER EQ SWAP1 POP PUSH2 0x6E7 JUMP JUMPDEST CALLVALUE PUSH2 0x2A2 JUMPI PUSH2 0x4A6 PUSH2 0x723 CALLDATASIZE PUSH2 0x1BF6 JUMP JUMPDEST PUSH1 0x1 PUSH1 0x1 PUSH1 0xA0 SHL SUB PUSH1 0x2 SLOAD AND CALLER EQ DUP1 ISZERO PUSH2 0x7AB JUMPI JUMPDEST PUSH2 0x741 SWAP1 PUSH2 0x1D16 JUMP JUMPDEST PUSH32 0xCC3839C65AF66C01694BEDEFC47E2C3871DEDD5489B4432FB8B876F92BCD26FE PUSH1 0x20 PUSH1 0x1 PUSH1 0x1 PUSH1 0xA0 SHL SUB DUP5 AND SWAP3 PUSH2 0x77A DUP5 ISZERO ISZERO PUSH2 0x1D61 JUMP JUMPDEST DUP4 PUSH1 0x0 MSTORE PUSH1 0x13 DUP3 MSTORE PUSH2 0x79D DUP2 PUSH1 0x40 PUSH1 0x0 KECCAK256 SWAP1 PUSH1 0xFF PUSH1 0xFF NOT DUP4 SLOAD AND SWAP2 ISZERO ISZERO AND OR SWAP1 SSTORE JUMP JUMPDEST PUSH1 0x40 MLOAD SWAP1 ISZERO ISZERO DUP2 MSTORE LOG2 PUSH2 0x2268 JUMP JUMPDEST POP PUSH2 0x741 PUSH1 0x1 PUSH1 0x1 PUSH1 0xA0 SHL SUB PUSH1 0x0 SLOAD AND CALLER EQ SWAP1 POP PUSH2 0x738 JUMP JUMPDEST CALLVALUE PUSH2 0x2A2 JUMPI PUSH1 0x20 PUSH1 0x3 NOT CALLDATASIZE ADD SLT PUSH2 0x2A2 JUMPI PUSH1 0xE0 PUSH1 0x1 PUSH1 0x1 PUSH1 0xA0 SHL SUB PUSH2 0x7E7 PUSH2 0x1BE0 JUMP JUMPDEST PUSH1 0x0 PUSH1 0xC0 PUSH1 0x40 MLOAD PUSH2 0x7F7 DUP2 PUSH2 0x1C8A JUMP JUMPDEST DUP3 DUP2 MSTORE DUP3 PUSH1 0x20 DUP3 ADD MSTORE DUP3 PUSH1 0x40 DUP3 ADD MSTORE DUP3 PUSH1 0x60 DUP3 ADD MSTORE DUP3 PUSH1 0x80 DUP3 ADD MSTORE DUP3 PUSH1 0xA0 DUP3 ADD MSTORE ADD MSTORE AND DUP1 PUSH1 0x0 MSTORE PUSH1 0xB PUSH1 0x20 MSTORE PUSH1 0x40 PUSH1 0x0 KECCAK256 SLOAD SWAP1 DUP1 PUSH1 0x0 MSTORE PUSH1 0xC PUSH1 0x20 MSTORE PUSH1 0x40 PUSH1 0x0 KECCAK256 SLOAD SWAP1 DUP1 PUSH1 0x0 MSTORE PUSH1 0xD PUSH1 0x20 MSTORE PUSH1 0x40 PUSH1 0x0 KECCAK256 SLOAD DUP2 PUSH1 0x0 MSTORE PUSH1 0xE PUSH1 0x20 MSTORE PUSH1 0x40 PUSH1 0x0 KECCAK256 SLOAD DUP3 PUSH1 0x0 MSTORE PUSH1 0xF PUSH1 0x20 MSTORE PUSH1 0x40 PUSH1 0x0 KECCAK256 SLOAD SWAP2 DUP4 PUSH1 0x0 MSTORE PUSH1 0x10 PUSH1 0x20 MSTORE PUSH1 0x40 PUSH1 0x0 KECCAK256 SLOAD SWAP4 PUSH1 0x0 MSTORE PUSH1 0x11 PUSH1 0x20 MSTORE PUSH1 0x40 PUSH1 0x0 KECCAK256 SLOAD SWAP5 PUSH1 0xC0 PUSH1 0x40 MLOAD PUSH2 0x896 DUP2 PUSH2 0x1C8A JUMP JUMPDEST DUP9 DUP2 MSTORE PUSH1 0x20 DUP2 ADD SWAP3 DUP4 MSTORE PUSH1 0x40 DUP2 ADD SWAP4 DUP5 MSTORE PUSH1 0x60 DUP2 ADD SWAP5 DUP6 MSTORE PUSH1 0x80 DUP2 ADD SWAP6 DUP7 MSTORE PUSH1 0xA0 DUP2 ADD SWAP7 DUP8 MSTORE ADD SWAP6 DUP7 MSTORE PUSH1 0x40 MLOAD SWAP7 DUP8 MSTORE MLOAD PUSH1 0x20 DUP8 ADD MSTORE MLOAD PUSH1 0x40 DUP7 ADD MSTORE MLOAD PUSH1 0x60 DUP6 ADD MSTORE MLOAD PUSH1 0x80 DUP5 ADD MSTORE MLOAD PUSH1 0xA0 DUP4 ADD MSTORE MLOAD PUSH1 0xC0 DUP3 ADD MSTORE RETURN JUMPDEST CALLVALUE PUSH2 0x2A2 JUMPI PUSH2 0x4A6 PUSH2 0x93F PUSH2 0x900 CALLDATASIZE PUSH2 0x1BF6 JUMP JUMPDEST PUSH2 0x90B SWAP3 SWAP2 SWAP3 PUSH2 0x21D1 JUMP JUMPDEST PUSH1 0x1 PUSH1 0x1 PUSH1 0xA0 SHL SUB DUP4 AND PUSH2 0x920 DUP2 ISZERO ISZERO PUSH2 0x1D61 JUMP JUMPDEST PUSH1 0x0 MSTORE PUSH1 0x14 PUSH1 0x20 MSTORE PUSH1 0x40 PUSH1 0x0 KECCAK256 SWAP1 PUSH1 0xFF PUSH1 0xFF NOT DUP4 SLOAD AND SWAP2 ISZERO ISZERO AND OR SWAP1 SSTORE JUMP JUMPDEST PUSH2 0x2268 JUMP JUMPDEST CALLVALUE PUSH2 0x2A2 JUMPI PUSH1 0x20 PUSH1 0x3 NOT CALLDATASIZE ADD SLT PUSH2 0x2A2 JUMPI PUSH32 0x97A0E071347446E2194FF9AD20CC9CACD1BF66E7AC6DD90548B9A2B545870A2C PUSH1 0x40 PUSH1 0x4 CALLDATALOAD PUSH2 0x983 PUSH2 0x21D1 JUMP JUMPDEST PUSH2 0x98E DUP2 ISZERO ISZERO PUSH2 0x1C25 JUMP JUMPDEST PUSH2 0x997 DUP2 PUSH2 0x2213 JUMP JUMPDEST PUSH1 0x9 SLOAD SWAP1 DUP1 PUSH1 0x9 SSTORE DUP3 MLOAD SWAP2 DUP3 MSTORE PUSH1 0x20 DUP3 ADD MSTORE LOG1 STOP JUMPDEST CALLVALUE PUSH2 0x2A2 JUMPI PUSH1 0x0 PUSH1 0x3 NOT CALLDATASIZE ADD SLT PUSH2 0x2A2 JUMPI PUSH1 0x20 PUSH1 0x1 PUSH1 0x1 PUSH1 0xA0 SHL SUB PUSH1 0x0 SLOAD AND PUSH1 0x40 MLOAD SWAP1 DUP2 MSTORE RETURN JUMPDEST CALLVALUE PUSH2 0x2A2 JUMPI PUSH1 0x20 PUSH1 0x3 NOT CALLDATASIZE ADD SLT PUSH2 0x2A2 JUMPI PUSH1 0x4 CALLDATALOAD PUSH2 0x9EF PUSH2 0x1DAC JUMP JUMPDEST PUSH1 0x1 PUSH1 0x1 PUSH1 0xA0 SHL SUB PUSH1 0x3 SLOAD AND DUP1 ISZERO PUSH2 0xBFB JUMPI DUP2 ISZERO PUSH2 0xBB7 JUMPI PUSH1 0x20 PUSH1 0x24 SWAP2 PUSH1 0x40 MLOAD SWAP3 DUP4 DUP1 SWAP3 PUSH32 0x5FB971FE00000000000000000000000000000000000000000000000000000000 DUP3 MSTORE CALLER PUSH1 0x4 DUP4 ADD MSTORE GAS STATICCALL DUP1 ISZERO PUSH2 0xBAB JUMPI DUP3 SWAP2 PUSH1 0x0 SWAP2 PUSH2 0xB76 JUMPI JUMPDEST POP LT PUSH2 0xB32 JUMPI PUSH1 0x40 MLOAD PUSH1 0x20 DUP2 ADD SWAP1 CALLER PUSH1 0x60 SHL DUP3 MSTORE DUP3 PUSH1 0x34 DUP3 ADD MSTORE PUSH1 0x34 DUP2 MSTORE PUSH2 0xA77 PUSH1 0x54 DUP3 PUSH2 0x1CD5 JUMP JUMPDEST MLOAD SWAP1 KECCAK256 DUP1 PUSH1 0x0 MSTORE PUSH1 0x1A PUSH1 0x20 MSTORE PUSH1 0xFF PUSH1 0x40 PUSH1 0x0 KECCAK256 SLOAD AND PUSH2 0xAEE JUMPI PUSH1 0x0 MSTORE PUSH1 0x1A PUSH1 0x20 MSTORE PUSH1 0x40 PUSH1 0x0 KECCAK256 PUSH1 0x1 PUSH1 0xFF NOT DUP3 SLOAD AND OR SWAP1 SSTORE PUSH2 0xAB4 PUSH1 0xA SLOAD CALLER PUSH2 0x204B JUMP JUMPDEST PUSH1 0xA SLOAD PUSH1 0x40 MLOAD SWAP2 DUP3 MSTORE PUSH1 0x20 DUP3 ADD MSTORE PUSH32 0x951F39974D404F2469A2C5EB978DFC1F14816A992E303940D6691BA1F800B22A PUSH1 0x40 CALLER SWAP3 LOG2 PUSH1 0x1 DUP1 SSTORE STOP JUMPDEST PUSH1 0x64 PUSH1 0x40 MLOAD PUSH3 0x461BCD PUSH1 0xE5 SHL DUP2 MSTORE PUSH1 0x20 PUSH1 0x4 DUP3 ADD MSTORE PUSH1 0x16 PUSH1 0x24 DUP3 ADD MSTORE PUSH32 0x52657761726420616C726561647920636C61696D656400000000000000000000 PUSH1 0x44 DUP3 ADD MSTORE REVERT JUMPDEST PUSH1 0x64 PUSH1 0x40 MLOAD PUSH3 0x461BCD PUSH1 0xE5 SHL DUP2 MSTORE PUSH1 0x20 PUSH1 0x4 DUP3 ADD MSTORE PUSH1 0x14 PUSH1 0x24 DUP3 ADD MSTORE PUSH32 0x487970657263657274206E6F74206D696E746564000000000000000000000000 PUSH1 0x44 DUP3 ADD MSTORE REVERT JUMPDEST SWAP2 POP POP PUSH1 0x20 DUP2 RETURNDATASIZE PUSH1 0x20 GT PUSH2 0xBA3 JUMPI JUMPDEST DUP2 PUSH2 0xB92 PUSH1 0x20 SWAP4 DUP4 PUSH2 0x1CD5 JUMP JUMPDEST DUP2 ADD SUB SLT PUSH2 0x2A2 JUMPI DUP2 SWAP1 MLOAD DUP4 PUSH2 0xA4E JUMP JUMPDEST RETURNDATASIZE SWAP2 POP PUSH2 0xB85 JUMP JUMPDEST PUSH1 0x40 MLOAD RETURNDATASIZE PUSH1 0x0 DUP3 RETURNDATACOPY RETURNDATASIZE SWAP1 REVERT JUMPDEST PUSH1 0x64 PUSH1 0x40 MLOAD PUSH3 0x461BCD PUSH1 0xE5 SHL DUP2 MSTORE PUSH1 0x20 PUSH1 0x4 DUP3 ADD MSTORE PUSH1 0x18 PUSH1 0x24 DUP3 ADD MSTORE PUSH32 0x496E76616C696420687970657263657274206E756D6265720000000000000000 PUSH1 0x44 DUP3 ADD MSTORE REVERT JUMPDEST PUSH1 0x64 PUSH1 0x40 MLOAD PUSH3 0x461BCD PUSH1 0xE5 SHL DUP2 MSTORE PUSH1 0x20 PUSH1 0x4 DUP3 ADD MSTORE PUSH1 0x12 PUSH1 0x24 DUP3 ADD MSTORE PUSH32 0x5375626D697373696F6E206E6F74207365740000000000000000000000000000 PUSH1 0x44 DUP3 ADD MSTORE REVERT JUMPDEST CALLVALUE PUSH2 0x2A2 JUMPI PUSH1 0x0 PUSH1 0x3 NOT CALLDATASIZE ADD SLT PUSH2 0x2A2 JUMPI PUSH1 0x20 PUSH1 0x1 PUSH1 0x1 PUSH1 0xA0 SHL SUB PUSH1 0x3 SLOAD AND PUSH1 0x40 MLOAD SWAP1 DUP2 MSTORE RETURN JUMPDEST CALLVALUE PUSH2 0x2A2 JUMPI PUSH1 0x20 PUSH1 0x3 NOT CALLDATASIZE ADD SLT PUSH2 0x2A2 JUMPI PUSH1 0x4 CALLDATALOAD PUSH1 0x0 MSTORE PUSH1 0x1A PUSH1 0x20 MSTORE PUSH1 0x20 PUSH1 0xFF PUSH1 0x40 PUSH1 0x0 KECCAK256 SLOAD AND PUSH1 0x40 MLOAD SWAP1 ISZERO ISZERO DUP2 MSTORE RETURN JUMPDEST CALLVALUE PUSH2 0x2A2 JUMPI PUSH1 0x20 PUSH1 0x3 NOT CALLDATASIZE ADD SLT PUSH2 0x2A2 JUMPI PUSH1 0x1 PUSH1 0x1 PUSH1 0xA0 SHL SUB PUSH2 0xCB8 PUSH2 0x1BE0 JUMP JUMPDEST PUSH2 0xCC0 PUSH2 0x21D1 JUMP JUMPDEST AND PUSH2 0xCCC DUP2 ISZERO ISZERO PUSH2 0x1D61 JUMP JUMPDEST PUSH1 0x1 PUSH1 0x1 PUSH1 0xA0 SHL SUB PUSH1 0x4 SLOAD DUP3 PUSH20 0xFFFFFFFFFFFFFFFFFFFFFFFFFFFFFFFFFFFFFFFF NOT DUP3 AND OR PUSH1 0x4 SSTORE AND PUSH32 0x4AB5BE82436D353E61CA18726E984E561F5C1CC7C6D38B29D2553C790434705A PUSH1 0x0 DUP1 LOG3 STOP JUMPDEST CALLVALUE PUSH2 0x2A2 JUMPI PUSH1 0x0 PUSH1 0x3 NOT CALLDATASIZE ADD SLT PUSH2 0x2A2 JUMPI PUSH1 0x20 PUSH1 0xA SLOAD PUSH1 0x40 MLOAD SWAP1 DUP2 MSTORE RETURN JUMPDEST CALLVALUE PUSH2 0x2A2 JUMPI PUSH1 0x40 PUSH1 0x3 NOT CALLDATASIZE ADD SLT PUSH2 0x2A2 JUMPI PUSH2 0xD53 PUSH2 0x1BE0 JUMP JUMPDEST PUSH1 0x24 CALLDATALOAD SWAP1 PUSH1 0x1 PUSH1 0x1 PUSH1 0xA0 SHL SUB PUSH1 0x3 SLOAD AND CALLER EQ DUP1 ISZERO PUSH2 0xDFE JUMPI JUMPDEST PUSH2 0xD75 SWAP1 PUSH2 0x1D16 JUMP JUMPDEST PUSH1 0x1 PUSH1 0x1 PUSH1 0xA0 SHL SUB DUP2 AND SWAP1 PUSH2 0xD8B DUP3 ISZERO ISZERO PUSH2 0x1D61 JUMP JUMPDEST PUSH2 0xD96 DUP4 ISZERO ISZERO PUSH2 0x1C25 JUMP JUMPDEST PUSH1 0x8 SLOAD DUP4 DUP2 MUL SWAP4 DUP2 DUP6 DIV EQ SWAP1 ISZERO OR ISZERO PUSH2 0xDCF JUMPI DUP3 PUSH2 0xDB3 SWAP2 PUSH2 0x1FC9 JUMP JUMPDEST PUSH1 0x0 MSTORE PUSH1 0x11 PUSH1 0x20 MSTORE PUSH2 0xDCB PUSH1 0x40 PUSH1 0x0 KECCAK256 SWAP2 DUP3 SLOAD PUSH2 0x1C7D JUMP JUMPDEST SWAP1 SSTORE STOP JUMPDEST PUSH32 0x4E487B7100000000000000000000000000000000000000000000000000000000 PUSH1 0x0 MSTORE PUSH1 0x11 PUSH1 0x4 MSTORE PUSH1 0x24 PUSH1 0x0 REVERT JUMPDEST POP PUSH2 0xD75 PUSH1 0x1 PUSH1 0x1 PUSH1 0xA0 SHL SUB PUSH1 0x0 SLOAD AND CALLER EQ SWAP1 POP PUSH2 0xD6C JUMP JUMPDEST CALLVALUE PUSH2 0x2A2 JUMPI PUSH1 0x0 PUSH1 0x3 NOT CALLDATASIZE ADD SLT PUSH2 0x2A2 JUMPI PUSH2 0xE30 PUSH2 0x21D1 JUMP JUMPDEST PUSH1 0x0 PUSH1 0x1 PUSH1 0x1 PUSH1 0xA0 SHL SUB DUP2 SLOAD PUSH20 0xFFFFFFFFFFFFFFFFFFFFFFFFFFFFFFFFFFFFFFFF NOT DUP2 AND DUP4 SSTORE AND PUSH32 0x8BE0079C531659141344CD1FD0A4F28419497F9722A3DAAFE3B4186F6B6457E0 DUP3 DUP1 LOG3 STOP JUMPDEST CALLVALUE PUSH2 0x2A2 JUMPI PUSH1 0x20 PUSH1 0x3 NOT CALLDATASIZE ADD SLT PUSH2 0x2A2 JUMPI PUSH1 0x1 PUSH1 0x1 PUSH1 0xA0 SHL SUB PUSH2 0xE9E PUSH2 0x1BE0 JUMP JUMPDEST AND PUSH1 0x0 MSTORE PUSH1 0x10 PUSH1 0x20 MSTORE PUSH1 0x20 PUSH1 0x40 PUSH1 0x0 KECCAK256 SLOAD PUSH1 0x40 MLOAD SWAP1 DUP2 MSTORE RETURN JUMPDEST CALLVALUE PUSH2 0x2A2 JUMPI PUSH1 0x0 PUSH1 0x3 NOT CALLDATASIZE ADD SLT PUSH2 0x2A2 JUMPI PUSH1 0x20 PUSH1 0x1 PUSH1 0x1 PUSH1 0xA0 SHL SUB PUSH1 0x2 SLOAD AND PUSH1 0x40 MLOAD SWAP1 DUP2 MSTORE RETURN JUMPDEST CALLVALUE PUSH2 0x2A2 JUMPI PUSH1 0x20 PUSH1 0x3 NOT CALLDATASIZE ADD SLT PUSH2 0x2A2 JUMPI PUSH1 0x1 PUSH1 0x1 PUSH1 0xA0 SHL SUB PUSH2 0xEFF PUSH2 0x1BE0 JUMP JUMPDEST AND PUSH1 0x0 MSTORE PUSH1 0xF PUSH1 0x20 MSTORE PUSH1 0x20 PUSH1 0x40 PUSH1 0x0 KECCAK256 SLOAD PUSH1 0x40 MLOAD SWAP1 DUP2 MSTORE RETURN JUMPDEST CALLVALUE PUSH2 0x2A2 JUMPI PUSH1 0x20 PUSH1 0x3 NOT CALLDATASIZE ADD SLT PUSH2 0x2A2 JUMPI PUSH1 0x1 PUSH1 0x1 PUSH1 0xA0 SHL SUB PUSH2 0xF39 PUSH2 0x1BE0 JUMP JUMPDEST AND PUSH1 0x0 MSTORE PUSH1 0x19 PUSH1 0x20 MSTORE PUSH1 0x20 PUSH1 0xFF PUSH1 0x40 PUSH1 0x0 KECCAK256 SLOAD AND PUSH1 0x40 MLOAD SWAP1 ISZERO ISZERO DUP2 MSTORE RETURN JUMPDEST CALLVALUE PUSH2 0x2A2 JUMPI PUSH1 0x0 PUSH1 0x3 NOT CALLDATASIZE ADD SLT PUSH2 0x2A2 JUMPI PUSH1 0x20 PUSH1 0x1 PUSH1 0x1 PUSH1 0xA0 SHL SUB PUSH1 0x4 SLOAD AND PUSH1 0x40 MLOAD SWAP1 DUP2 MSTORE RETURN JUMPDEST CALLVALUE PUSH2 0x2A2 JUMPI PUSH1 0x20 PUSH1 0x3 NOT CALLDATASIZE ADD SLT PUSH2 0x2A2 JUMPI PUSH1 0x60 PUSH2 0xF99 PUSH2 0x1BE0 JUMP JUMPDEST PUSH1 0x1 PUSH1 0x1 PUSH1 0xA0 SHL SUB DUP2 AND SWAP1 DUP2 PUSH1 0x0 MSTORE PUSH1 0x12 PUSH1 0x20 MSTORE PUSH1 0xFF PUSH1 0x40 PUSH1 0x0 KECCAK256 SLOAD AND SWAP2 PUSH1 0x0 MSTORE PUSH1 0x13 PUSH1 0x20 MSTORE PUSH2 0xFD1 PUSH1 0xFF PUSH1 0x40 PUSH1 0x0 KECCAK256 SLOAD AND SWAP2 PUSH2 0x1DE7 JUMP JUMPDEST SWAP1 PUSH1 0x40 MLOAD SWAP3 ISZERO ISZERO DUP4 MSTORE ISZERO ISZERO PUSH1 0x20 DUP4 ADD MSTORE ISZERO ISZERO PUSH1 0x40 DUP3 ADD MSTORE RETURN JUMPDEST CALLVALUE PUSH2 0x2A2 JUMPI PUSH1 0x60 PUSH1 0x3 NOT CALLDATASIZE ADD SLT PUSH2 0x2A2 JUMPI PUSH32 0x246173514089D16E18EC0AC77EBD48A60F2F43CF55E2436266E925590D81CD85 PUSH1 0x60 PUSH1 0x4 CALLDATALOAD PUSH1 0x44 CALLDATALOAD PUSH1 0x24 CALLDATALOAD PUSH2 0x102F PUSH2 0x21D1 JUMP JUMPDEST PUSH2 0x1038 DUP4 PUSH2 0x2213 JUMP JUMPDEST PUSH2 0x1041 DUP2 PUSH2 0x2213 JUMP JUMPDEST PUSH2 0x104A DUP3 PUSH2 0x2213 JUMP JUMPDEST DUP3 PUSH1 0x5 SSTORE DUP1 PUSH1 0x6 SSTORE DUP2 PUSH1 0x7 SSTORE PUSH1 0x40 MLOAD SWAP3 DUP4 MSTORE PUSH1 0x20 DUP4 ADD MSTORE PUSH1 0x40 DUP3 ADD MSTORE LOG1 STOP JUMPDEST CALLVALUE PUSH2 0x2A2 JUMPI PUSH1 0x20 PUSH1 0x3 NOT CALLDATASIZE ADD SLT PUSH2 0x2A2 JUMPI PUSH1 0xA0 PUSH1 0x1 PUSH1 0x1 PUSH1 0xA0 SHL SUB PUSH2 0x108C PUSH2 0x1BE0 JUMP JUMPDEST AND PUSH1 0x0 SWAP1 DUP2 MSTORE PUSH1 0xE PUSH1 0x20 SWAP1 DUP2 MSTORE PUSH1 0x40 DUP1 DUP4 KECCAK256 SLOAD PUSH1 0xF DUP4 MSTORE DUP2 DUP5 KECCAK256 SLOAD PUSH1 0x10 DUP5 MSTORE DUP3 DUP6 KECCAK256 SLOAD PUSH1 0xB DUP6 MSTORE DUP4 DUP7 KECCAK256 SLOAD PUSH1 0xD DUP7 MSTORE SWAP6 DUP5 SWAP1 KECCAK256 SLOAD DUP5 MLOAD SWAP4 DUP5 MSTORE SWAP5 DUP4 ADD SWAP2 SWAP1 SWAP2 MSTORE SWAP2 DUP2 ADD SWAP2 SWAP1 SWAP2 MSTORE PUSH1 0x60 DUP2 ADD SWAP3 SWAP1 SWAP3 MSTORE PUSH1 0x80 DUP3 ADD MSTORE RETURN JUMPDEST CALLVALUE PUSH2 0x2A2 JUMPI PUSH1 0x40 PUSH1 0x3 NOT CALLDATASIZE ADD SLT PUSH2 0x2A2 JUMPI PUSH2 0x10FB PUSH2 0x1BE0 JUMP JUMPDEST PUSH1 0x24 CALLDATALOAD SWAP1 PUSH1 0x1 PUSH1 0x1 PUSH1 0xA0 SHL SUB DUP3 AND DUP1 SWAP3 SUB PUSH2 0x2A2 JUMPI PUSH1 0x1 PUSH1 0x1 PUSH1 0xA0 SHL SUB SWAP1 DUP2 PUSH1 0x3 SLOAD AND CALLER EQ DUP1 ISZERO PUSH2 0x120A JUMPI JUMPDEST PUSH2 0x1130 SWAP1 PUSH2 0x1D16 JUMP JUMPDEST AND DUP1 ISZERO ISZERO DUP1 PUSH2 0x1201 JUMPI JUMPDEST PUSH2 0x1143 SWAP1 PUSH2 0x1D61 JUMP JUMPDEST PUSH2 0x114F DUP3 DUP3 EQ ISZERO PUSH2 0x1D61 JUMP JUMPDEST DUP1 PUSH1 0x0 MSTORE PUSH1 0x18 PUSH1 0x20 MSTORE PUSH1 0x1 PUSH1 0x1 PUSH1 0xA0 SHL SUB PUSH1 0x40 PUSH1 0x0 KECCAK256 SLOAD AND PUSH2 0x11BD JUMPI DUP1 PUSH1 0x0 MSTORE PUSH1 0x18 PUSH1 0x20 MSTORE PUSH1 0x40 PUSH1 0x0 KECCAK256 DUP3 PUSH20 0xFFFFFFFFFFFFFFFFFFFFFFFFFFFFFFFFFFFFFFFF NOT DUP3 SLOAD AND OR SWAP1 SSTORE PUSH32 0x5F1CA2FCC108B751843A763E60D2201F593516109D7DBB1B700468F2D4190BB7 PUSH1 0x0 DUP1 LOG3 STOP JUMPDEST PUSH1 0x64 PUSH1 0x40 MLOAD PUSH3 0x461BCD PUSH1 0xE5 SHL DUP2 MSTORE PUSH1 0x20 PUSH1 0x4 DUP3 ADD MSTORE PUSH1 0x1B PUSH1 0x24 DUP3 ADD MSTORE PUSH32 0x526566657272616C20616C726561647920726567697374657265640000000000 PUSH1 0x44 DUP3 ADD MSTORE REVERT JUMPDEST POP DUP2 ISZERO ISZERO PUSH2 0x113A JUMP JUMPDEST POP PUSH1 0x0 SLOAD DUP3 AND CALLER EQ PUSH2 0x1127 JUMP JUMPDEST CALLVALUE PUSH2 0x2A2 JUMPI PUSH1 0x0 PUSH1 0x3 NOT CALLDATASIZE ADD SLT PUSH2 0x2A2 JUMPI PUSH1 0x20 PUSH1 0x5 SLOAD PUSH1 0x40 MLOAD SWAP1 DUP2 MSTORE RETURN JUMPDEST CALLVALUE PUSH2 0x2A2 JUMPI PUSH1 0x20 PUSH1 0x3 NOT CALLDATASIZE ADD SLT PUSH2 0x2A2 JUMPI PUSH1 0x1 PUSH1 0x1 PUSH1 0xA0 SHL SUB PUSH2 0x1256 PUSH2 0x1BE0 JUMP JUMPDEST AND PUSH1 0x0 MSTORE PUSH1 0x16 PUSH1 0x20 MSTORE PUSH1 0x20 PUSH1 0x40 PUSH1 0x0 KECCAK256 SLOAD PUSH1 0x40 MLOAD SWAP1 DUP2 MSTORE RETURN JUMPDEST CALLVALUE PUSH2 0x2A2 JUMPI PUSH1 0x0 PUSH1 0x3 NOT CALLDATASIZE ADD SLT PUSH2 0x2A2 JUMPI PUSH1 0x20 PUSH1 0x6 SLOAD PUSH1 0x40 MLOAD SWAP1 DUP2 MSTORE RETURN JUMPDEST CALLVALUE PUSH2 0x2A2 JUMPI PUSH1 0x20 PUSH1 0x3 NOT CALLDATASIZE ADD SLT PUSH2 0x2A2 JUMPI PUSH1 0x1 PUSH1 0x1 PUSH1 0xA0 SHL SUB PUSH2 0x12AE PUSH2 0x1BE0 JUMP JUMPDEST PUSH2 0x12B6 PUSH2 0x21D1 JUMP JUMPDEST AND PUSH2 0x12C2 DUP2 ISZERO ISZERO PUSH2 0x1D61 JUMP JUMPDEST PUSH1 0x1 PUSH1 0x1 PUSH1 0xA0 SHL SUB PUSH1 0x2 SLOAD DUP3 PUSH20 0xFFFFFFFFFFFFFFFFFFFFFFFFFFFFFFFFFFFFFFFF NOT DUP3 AND OR PUSH1 0x2 SSTORE AND PUSH32 0x5F472E59B83F0C85014D6A7CD671172B33CF16294C73442FCB0FDC4BB2F36B8 PUSH1 0x0 DUP1 LOG3 STOP JUMPDEST CALLVALUE PUSH2 0x2A2 JUMPI PUSH1 0x20 PUSH1 0x3 NOT CALLDATASIZE ADD SLT PUSH2 0x2A2 JUMPI PUSH1 0x1 PUSH1 0x1 PUSH1 0xA0 SHL SUB PUSH2 0x1333 PUSH2 0x1BE0 JUMP JUMPDEST AND PUSH1 0x0 MSTORE PUSH1 0x18 PUSH1 0x20 MSTORE PUSH1 0x20 PUSH1 0x1 PUSH1 0x1 PUSH1 0xA0 SHL SUB PUSH1 0x40 PUSH1 0x0 KECCAK256 SLOAD AND PUSH1 0x40 MLOAD SWAP1 DUP2 MSTORE RETURN JUMPDEST CALLVALUE PUSH2 0x2A2 JUMPI PUSH2 0x4A6 PUSH2 0x1366 CALLDATASIZE PUSH2 0x1BF6 JUMP JUMPDEST PUSH1 0x1 PUSH1 0x1 PUSH1 0xA0 SHL SUB PUSH1 0x2 SLOAD AND CALLER EQ DUP1 ISZERO PUSH2 0x14D4 JUMPI JUMPDEST PUSH2 0x1384 SWAP1 PUSH2 0x1D16 JUMP JUMPDEST PUSH32 0xD1148EED154E83A9726BA99E44569959444CDD245759C5DC1DD5F6B662A4BB07 PUSH1 0x20 PUSH1 0x1 PUSH1 0x1 PUSH1 0xA0 SHL SUB DUP5 AND SWAP3 PUSH2 0x13BD DUP5 ISZERO ISZERO PUSH2 0x1D61 JUMP JUMPDEST DUP1 ISZERO PUSH2 0x14AB JUMPI DUP4 PUSH1 0x0 MSTORE PUSH1 0x16 DUP3 MSTORE DUP4 PUSH1 0x40 PUSH1 0x0 KECCAK256 SLOAD DUP1 ISZERO ISZERO DUP1 PUSH2 0x1495 JUMPI JUMPDEST PUSH2 0x1415 JUMPI JUMPDEST POP PUSH1 0x0 MSTORE PUSH1 0x16 DUP3 MSTORE TIMESTAMP PUSH1 0x40 PUSH1 0x0 KECCAK256 SSTORE DUP4 PUSH1 0x0 MSTORE PUSH1 0x12 DUP3 MSTORE PUSH1 0x40 PUSH1 0x0 KECCAK256 PUSH1 0x1 PUSH1 0xFF NOT DUP3 SLOAD AND OR SWAP1 SSTORE PUSH1 0x40 MLOAD SWAP1 ISZERO ISZERO DUP2 MSTORE LOG2 PUSH2 0x2268 JUMP JUMPDEST PUSH2 0x144C PUSH3 0x15180 SWAP2 PUSH2 0x1429 PUSH1 0x7 SLOAD DUP11 PUSH2 0x1F47 JUMP JUMPDEST PUSH1 0x7 SLOAD DUP5 PUSH1 0x0 MSTORE PUSH1 0xF DUP8 MSTORE PUSH2 0x1444 PUSH1 0x40 PUSH1 0x0 KECCAK256 SWAP2 DUP3 SLOAD PUSH2 0x1C7D JUMP JUMPDEST SWAP1 SSTORE TIMESTAMP PUSH2 0x1C70 JUMP JUMPDEST DIV DUP1 ISZERO PUSH2 0x148D JUMPI JUMPDEST PUSH1 0x40 PUSH32 0xBED2E721199F29579FCCD5FD78B46EC11F3136F6CFD1E46CE44CFEAB9383E9E0 SWAP2 PUSH1 0x7 SLOAD SWAP1 DUP3 MLOAD SWAP2 DUP3 MSTORE DUP7 DUP3 ADD MSTORE LOG2 DUP4 DUP8 PUSH2 0x13E0 JUMP JUMPDEST POP PUSH1 0x1 PUSH2 0x1454 JUMP JUMPDEST POP PUSH3 0x93A80 PUSH2 0x14A4 DUP3 TIMESTAMP PUSH2 0x1C70 JUMP JUMPDEST GT ISZERO PUSH2 0x13DB JUMP JUMPDEST DUP4 PUSH1 0x0 MSTORE PUSH1 0x12 DUP3 MSTORE PUSH1 0x40 PUSH1 0x0 KECCAK256 PUSH1 0xFF NOT DUP2 SLOAD AND SWAP1 SSTORE DUP4 PUSH1 0x0 MSTORE PUSH1 0x16 DUP3 MSTORE PUSH1 0x0 PUSH1 0x40 DUP2 KECCAK256 SSTORE PUSH2 0x79D JUMP JUMPDEST POP PUSH2 0x1384 PUSH1 0x1 PUSH1 0x1 PUSH1 0xA0 SHL SUB PUSH1 0x0 SLOAD AND CALLER EQ SWAP1 POP PUSH2 0x137B JUMP JUMPDEST CALLVALUE PUSH2 0x2A2 JUMPI PUSH1 0x20 PUSH1 0x3 NOT CALLDATASIZE ADD SLT PUSH2 0x2A2 JUMPI PUSH32 0x62EC281DE63E34E58D9E3E04C415A28759615452E4D445C98824C10425DFE6B4 PUSH1 0x40 PUSH1 0x4 CALLDATALOAD PUSH2 0x152C PUSH2 0x21D1 JUMP JUMPDEST PUSH2 0x1537 DUP2 ISZERO ISZERO PUSH2 0x1C25 JUMP JUMPDEST PUSH2 0x1540 DUP2 PUSH2 0x2213 JUMP JUMPDEST PUSH1 0x8 SLOAD SWAP1 DUP1 PUSH1 0x8 SSTORE DUP3 MLOAD SWAP2 DUP3 MSTORE PUSH1 0x20 DUP3 ADD MSTORE LOG1 STOP JUMPDEST CALLVALUE PUSH2 0x2A2 JUMPI PUSH1 0x0 PUSH1 0x3 NOT CALLDATASIZE ADD SLT PUSH2 0x2A2 JUMPI PUSH1 0x20 PUSH1 0x7 SLOAD PUSH1 0x40 MLOAD SWAP1 DUP2 MSTORE RETURN JUMPDEST CALLVALUE PUSH2 0x2A2 JUMPI PUSH1 0x20 PUSH1 0x3 NOT CALLDATASIZE ADD SLT PUSH2 0x2A2 JUMPI PUSH1 0x1 PUSH1 0x1 PUSH1 0xA0 SHL SUB PUSH2 0x1594 PUSH2 0x1BE0 JUMP JUMPDEST AND PUSH1 0x0 MSTORE PUSH1 0xE PUSH1 0x20 MSTORE PUSH1 0x20 PUSH1 0x40 PUSH1 0x0 KECCAK256 SLOAD PUSH1 0x40 MLOAD SWAP1 DUP2 MSTORE RETURN JUMPDEST CALLVALUE PUSH2 0x2A2 JUMPI PUSH1 0x20 PUSH1 0x3 NOT CALLDATASIZE ADD SLT PUSH2 0x2A2 JUMPI PUSH1 0x1 PUSH1 0x1 PUSH1 0xA0 SHL SUB PUSH2 0x15CE PUSH2 0x1BE0 JUMP JUMPDEST AND PUSH1 0x0 MSTORE PUSH1 0x13 PUSH1 0x20 MSTORE PUSH1 0x20 PUSH1 0xFF PUSH1 0x40 PUSH1 0x0 KECCAK256 SLOAD AND PUSH1 0x40 MLOAD SWAP1 ISZERO ISZERO DUP2 MSTORE RETURN JUMPDEST CALLVALUE PUSH2 0x2A2 JUMPI PUSH1 0x0 PUSH1 0x3 NOT CALLDATASIZE ADD SLT PUSH2 0x2A2 JUMPI PUSH1 0x20 PUSH1 0x8 SLOAD PUSH1 0x40 MLOAD SWAP1 DUP2 MSTORE RETURN JUMPDEST CALLVALUE PUSH2 0x2A2 JUMPI PUSH1 0x20 PUSH1 0x3 NOT CALLDATASIZE ADD SLT PUSH2 0x2A2 JUMPI PUSH1 0x1 PUSH1 0x1 PUSH1 0xA0 SHL SUB PUSH2 0x162B PUSH2 0x1BE0 JUMP JUMPDEST AND PUSH1 0x0 MSTORE PUSH1 0x11 PUSH1 0x20 MSTORE PUSH1 0x20 PUSH1 0x40 PUSH1 0x0 KECCAK256 SLOAD PUSH1 0x40 MLOAD SWAP1 DUP2 MSTORE RETURN JUMPDEST CALLVALUE PUSH2 0x2A2 JUMPI PUSH1 0x40 PUSH1 0x3 NOT CALLDATASIZE ADD SLT PUSH2 0x2A2 JUMPI PUSH2 0x165D PUSH2 0x1BE0 JUMP JUMPDEST PUSH1 0x24 CALLDATALOAD SWAP1 PUSH1 0x1 PUSH1 0x1 PUSH1 0xA0 SHL SUB PUSH1 0x2 SLOAD AND CALLER EQ DUP1 ISZERO PUSH2 0x1994 JUMPI JUMPDEST PUSH2 0x167F SWAP1 PUSH2 0x1D16 JUMP JUMPDEST PUSH1 0x1 DUP3 LT ISZERO DUP1 PUSH2 0x1989 JUMPI JUMPDEST ISZERO PUSH2 0x1945 JUMPI PUSH1 0x1 PUSH1 0x1 PUSH1 0xA0 SHL SUB DUP2 AND SWAP1 PUSH2 0x16A5 DUP3 ISZERO ISZERO PUSH2 0x1D61 JUMP JUMPDEST PUSH2 0x16AE DUP2 PUSH2 0x1DE7 JUMP JUMPDEST ISZERO PUSH2 0x1901 JUMPI DUP2 PUSH1 0x0 MSTORE PUSH1 0x17 PUSH1 0x20 MSTORE PUSH1 0x40 PUSH1 0x0 KECCAK256 DUP4 PUSH1 0x0 MSTORE PUSH1 0x20 MSTORE PUSH1 0xFF PUSH1 0x40 PUSH1 0x0 KECCAK256 SLOAD AND PUSH2 0x18BD JUMPI DUP2 PUSH1 0x0 MSTORE PUSH1 0x17 PUSH1 0x20 MSTORE PUSH1 0x40 PUSH1 0x0 KECCAK256 DUP4 PUSH1 0x0 MSTORE PUSH1 0x20 MSTORE PUSH1 0x40 PUSH1 0x0 KECCAK256 PUSH1 0x1 PUSH1 0xFF NOT DUP3 SLOAD AND OR SWAP1 SSTORE PUSH2 0x1706 PUSH1 0x5 SLOAD DUP3 PUSH2 0x1E3E JUMP JUMPDEST PUSH1 0x5 SLOAD DUP3 PUSH1 0x0 MSTORE PUSH1 0xE PUSH1 0x20 MSTORE PUSH2 0x1722 PUSH1 0x40 PUSH1 0x0 KECCAK256 SWAP2 DUP3 SLOAD PUSH2 0x1C7D JUMP JUMPDEST SWAP1 SSTORE DUP3 DUP3 PUSH32 0xD88FDC5ED03A23AA2944456EEB92A5D48553863E1AFDE4D94A55960211277151 PUSH1 0x20 PUSH1 0x5 SLOAD PUSH1 0x40 MLOAD SWAP1 DUP2 MSTORE LOG3 DUP2 PUSH1 0x0 MSTORE PUSH1 0x18 PUSH1 0x20 MSTORE PUSH1 0x1 PUSH1 0x1 PUSH1 0xA0 SHL SUB PUSH1 0x40 PUSH1 0x0 KECCAK256 SLOAD AND SWAP3 DUP4 ISZERO ISZERO DUP1 PUSH2 0x18A4 JUMPI JUMPDEST PUSH2 0x177B JUMPI STOP JUMPDEST DUP3 PUSH1 0x0 MSTORE PUSH1 0x19 PUSH1 0x20 MSTORE PUSH1 0x40 PUSH1 0x0 KECCAK256 PUSH1 0x1 PUSH1 0xFF NOT DUP3 SLOAD AND OR SWAP1 SSTORE PUSH2 0x17A0 PUSH1 0x6 SLOAD DUP6 PUSH2 0x1EC5 JUMP JUMPDEST PUSH1 0x6 SLOAD DUP5 PUSH1 0x0 MSTORE PUSH1 0x10 PUSH1 0x20 MSTORE PUSH2 0x17BC PUSH1 0x40 PUSH1 0x0 KECCAK256 SWAP2 DUP3 SLOAD PUSH2 0x1C7D JUMP JUMPDEST SWAP1 SSTORE PUSH1 0x1 PUSH1 0x6 SLOAD SWAP2 DUP5 DUP7 PUSH32 0xB2DEE5F49E7A09A5D7C95CD4DD5DC6410EEA65D4E14519D6D3A6E14C8CF0E0E9 PUSH1 0x20 PUSH1 0x40 MLOAD DUP8 DUP2 MSTORE LOG3 DUP5 DUP7 PUSH32 0x3E555C80C86D940C198C007F11F8CA0CEDCBC1F0B2F0B0A7405A67493DFFE4DC PUSH1 0x20 PUSH1 0x40 MLOAD DUP8 DUP2 MSTORE LOG3 EQ PUSH2 0x1823 JUMPI STOP JUMPDEST PUSH2 0x182C SWAP2 PUSH2 0x1EC5 JUMP JUMPDEST PUSH1 0x6 SLOAD DUP2 PUSH1 0x0 MSTORE PUSH1 0x10 PUSH1 0x20 MSTORE PUSH2 0x1848 PUSH1 0x40 PUSH1 0x0 KECCAK256 SWAP2 DUP3 SLOAD PUSH2 0x1C7D JUMP JUMPDEST SWAP1 SSTORE PUSH32 0x3E555C80C86D940C198C007F11F8CA0CEDCBC1F0B2F0B0A7405A67493DFFE4DC PUSH1 0x20 PUSH1 0x6 SLOAD DUP5 DUP5 PUSH32 0xB2DEE5F49E7A09A5D7C95CD4DD5DC6410EEA65D4E14519D6D3A6E14C8CF0E0E9 DUP5 PUSH1 0x40 MLOAD DUP6 DUP2 MSTORE LOG3 PUSH1 0x40 MLOAD SWAP1 DUP2 MSTORE LOG3 STOP JUMPDEST POP DUP3 PUSH1 0x0 MSTORE PUSH1 0x19 PUSH1 0x20 MSTORE PUSH1 0xFF PUSH1 0x40 PUSH1 0x0 KECCAK256 SLOAD AND ISZERO PUSH2 0x1775 JUMP JUMPDEST PUSH1 0x64 PUSH1 0x40 MLOAD PUSH3 0x461BCD PUSH1 0xE5 SHL DUP2 MSTORE PUSH1 0x20 PUSH1 0x4 DUP3 ADD MSTORE PUSH1 0x15 PUSH1 0x24 DUP3 ADD MSTORE PUSH32 0x4C6576656C20616C726561647920636C61696D65640000000000000000000000 PUSH1 0x44 DUP3 ADD MSTORE REVERT JUMPDEST PUSH1 0x64 PUSH1 0x40 MLOAD PUSH3 0x461BCD PUSH1 0xE5 SHL DUP2 MSTORE PUSH1 0x20 PUSH1 0x4 DUP3 ADD MSTORE PUSH1 0x1D PUSH1 0x24 DUP3 ADD MSTORE PUSH32 0x55736572206E6F7420656C696769626C6520666F722072657761726473000000 PUSH1 0x44 DUP3 ADD MSTORE REVERT JUMPDEST PUSH1 0x64 PUSH1 0x40 MLOAD PUSH3 0x461BCD PUSH1 0xE5 SHL DUP2 MSTORE PUSH1 0x20 PUSH1 0x4 DUP3 ADD MSTORE PUSH1 0x14 PUSH1 0x24 DUP3 ADD MSTORE PUSH32 0x5245574152445F5F496E76616C69644C6576656C000000000000000000000000 PUSH1 0x44 DUP3 ADD MSTORE REVERT JUMPDEST POP PUSH1 0xA DUP3 GT ISZERO PUSH2 0x168A JUMP JUMPDEST POP PUSH2 0x167F PUSH1 0x1 PUSH1 0x1 PUSH1 0xA0 SHL SUB PUSH1 0x0 SLOAD AND CALLER EQ SWAP1 POP PUSH2 0x1676 JUMP JUMPDEST CALLVALUE PUSH2 0x2A2 JUMPI PUSH1 0x0 PUSH1 0x3 NOT CALLDATASIZE ADD SLT PUSH2 0x2A2 JUMPI PUSH1 0x20 PUSH1 0x40 MLOAD PUSH1 0x1 PUSH1 0x1 PUSH1 0xA0 SHL SUB PUSH32 0x0 AND DUP2 MSTORE RETURN JUMPDEST CALLVALUE PUSH2 0x2A2 JUMPI PUSH1 0x20 PUSH1 0x3 NOT CALLDATASIZE ADD SLT PUSH2 0x2A2 JUMPI PUSH1 0x4 CALLDATALOAD PUSH2 0x1A0D PUSH2 0x1DAC JUMP JUMPDEST PUSH2 0x1A18 DUP2 ISZERO ISZERO PUSH2 0x1C25 JUMP JUMPDEST CALLER PUSH1 0x0 MSTORE PUSH1 0xB PUSH1 0x20 MSTORE DUP1 PUSH1 0x40 PUSH1 0x0 KECCAK256 SLOAD LT PUSH2 0x1B9C JUMPI CALLER PUSH1 0x0 MSTORE PUSH1 0xB PUSH1 0x20 MSTORE PUSH1 0x40 PUSH1 0x0 KECCAK256 PUSH2 0x1A46 DUP3 DUP3 SLOAD PUSH2 0x1C70 JUMP JUMPDEST SWAP1 SSTORE CALLER PUSH1 0x0 MSTORE PUSH1 0xD PUSH1 0x20 MSTORE PUSH1 0x40 PUSH1 0x0 KECCAK256 PUSH2 0x1A61 DUP3 DUP3 SLOAD PUSH2 0x1C7D JUMP JUMPDEST SWAP1 SSTORE PUSH1 0x40 MLOAD PUSH32 0x40C10F1900000000000000000000000000000000000000000000000000000000 DUP2 MSTORE CALLER PUSH1 0x4 DUP3 ADD MSTORE DUP2 PUSH1 0x24 DUP3 ADD MSTORE PUSH1 0x20 DUP2 PUSH1 0x44 DUP2 PUSH1 0x0 PUSH1 0x1 PUSH1 0x1 PUSH1 0xA0 SHL SUB PUSH32 0x0 AND GAS CALL SWAP1 DUP2 ISZERO PUSH2 0xBAB JUMPI PUSH1 0x0 SWAP2 PUSH2 0x1B5A JUMPI JUMPDEST POP ISZERO PUSH2 0x1B16 JUMPI PUSH1 0x40 MLOAD SWAP1 DUP2 MSTORE TIMESTAMP PUSH1 0x20 DUP3 ADD MSTORE PUSH32 0xDACBDDE355BA930696A362EA6738FEB9F8BD52DFB3D81947558FD3217E23E325 PUSH1 0x40 CALLER SWAP3 LOG2 PUSH1 0x1 DUP1 SSTORE STOP JUMPDEST PUSH1 0x64 PUSH1 0x40 MLOAD PUSH3 0x461BCD PUSH1 0xE5 SHL DUP2 MSTORE PUSH1 0x20 PUSH1 0x4 DUP3 ADD MSTORE PUSH1 0x13 PUSH1 0x24 DUP3 ADD MSTORE PUSH32 0x52657761726420636C61696D206661696C656400000000000000000000000000 PUSH1 0x44 DUP3 ADD MSTORE REVERT JUMPDEST PUSH1 0x20 DUP2 RETURNDATASIZE PUSH1 0x20 GT PUSH2 0x1B94 JUMPI JUMPDEST DUP2 PUSH2 0x1B73 PUSH1 0x20 SWAP4 DUP4 PUSH2 0x1CD5 JUMP JUMPDEST DUP2 ADD SUB SLT PUSH2 0x1B90 JUMPI MLOAD SWAP1 DUP2 ISZERO ISZERO DUP3 SUB PUSH2 0x1B8D JUMPI POP DUP3 PUSH2 0x1AD8 JUMP JUMPDEST DUP1 REVERT JUMPDEST POP DUP1 REVERT JUMPDEST RETURNDATASIZE SWAP2 POP PUSH2 0x1B66 JUMP JUMPDEST PUSH1 0x64 PUSH1 0x40 MLOAD PUSH3 0x461BCD PUSH1 0xE5 SHL DUP2 MSTORE PUSH1 0x20 PUSH1 0x4 DUP3 ADD MSTORE PUSH1 0x1B PUSH1 0x24 DUP3 ADD MSTORE PUSH32 0x5245574152445F5F496E73756666696369656E7442616C616E63650000000000 PUSH1 0x44 DUP3 ADD MSTORE REVERT JUMPDEST PUSH1 0x4 CALLDATALOAD SWAP1 PUSH1 0x1 PUSH1 0x1 PUSH1 0xA0 SHL SUB DUP3 AND DUP3 SUB PUSH2 0x2A2 JUMPI JUMP JUMPDEST PUSH1 0x3 NOT PUSH1 0x40 SWAP2 ADD SLT PUSH2 0x2A2 JUMPI PUSH1 0x4 CALLDATALOAD PUSH1 0x1 PUSH1 0x1 PUSH1 0xA0 SHL SUB DUP2 AND DUP2 SUB PUSH2 0x2A2 JUMPI SWAP1 PUSH1 0x24 CALLDATALOAD DUP1 ISZERO ISZERO DUP2 SUB PUSH2 0x2A2 JUMPI SWAP1 JUMP JUMPDEST ISZERO PUSH2 0x1C2C JUMPI JUMP JUMPDEST PUSH1 0x64 PUSH1 0x40 MLOAD PUSH3 0x461BCD PUSH1 0xE5 SHL DUP2 MSTORE PUSH1 0x20 PUSH1 0x4 DUP3 ADD MSTORE PUSH1 0x12 PUSH1 0x24 DUP3 ADD MSTORE PUSH32 0x5245574152445F5F5A65726F416D6F756E740000000000000000000000000000 PUSH1 0x44 DUP3 ADD MSTORE REVERT JUMPDEST SWAP2 SWAP1 DUP3 SUB SWAP2 DUP3 GT PUSH2 0xDCF JUMPI JUMP JUMPDEST SWAP2 SWAP1 DUP3 ADD DUP1 SWAP3 GT PUSH2 0xDCF JUMPI JUMP JUMPDEST PUSH1 0xE0 DUP2 ADD SWAP1 DUP2 LT PUSH8 0xFFFFFFFFFFFFFFFF DUP3 GT OR PUSH2 0x1CA6 JUMPI PUSH1 0x40 MSTORE JUMP JUMPDEST PUSH32 0x4E487B7100000000000000000000000000000000000000000000000000000000 PUSH1 0x0 MSTORE PUSH1 0x41 PUSH1 0x4 MSTORE PUSH1 0x24 PUSH1 0x0 REVERT JUMPDEST SWAP1 PUSH1 0x1F PUSH32 0xFFFFFFFFFFFFFFFFFFFFFFFFFFFFFFFFFFFFFFFFFFFFFFFFFFFFFFFFFFFFFFE0 SWAP2 ADD AND DUP2 ADD SWAP1 DUP2 LT PUSH8 0xFFFFFFFFFFFFFFFF DUP3 GT OR PUSH2 0x1CA6 JUMPI PUSH1 0x40 MSTORE JUMP JUMPDEST ISZERO PUSH2 0x1D1D JUMPI JUMP JUMPDEST PUSH1 0x64 PUSH1 0x40 MLOAD PUSH3 0x461BCD PUSH1 0xE5 SHL DUP2 MSTORE PUSH1 0x20 PUSH1 0x4 DUP3 ADD MSTORE PUSH1 0x14 PUSH1 0x24 DUP3 ADD MSTORE PUSH32 0x5245574152445F5F556E617574686F72697A6564000000000000000000000000 PUSH1 0x44 DUP3 ADD MSTORE REVERT JUMPDEST ISZERO PUSH2 0x1D68 JUMPI JUMP JUMPDEST PUSH1 0x64 PUSH1 0x40 MLOAD PUSH3 0x461BCD PUSH1 0xE5 SHL DUP2 MSTORE PUSH1 0x20 PUSH1 0x4 DUP3 ADD MSTORE PUSH1 0x16 PUSH1 0x24 DUP3 ADD MSTORE PUSH32 0x5245574152445F5F496E76616C69644164647265737300000000000000000000 PUSH1 0x44 DUP3 ADD MSTORE REVERT JUMPDEST PUSH1 0x2 PUSH1 0x1 SLOAD EQ PUSH2 0x1DBD JUMPI PUSH1 0x2 PUSH1 0x1 SSTORE JUMP JUMPDEST PUSH32 0x3EE5AEB500000000000000000000000000000000000000000000000000000000 PUSH1 0x0 MSTORE PUSH1 0x4 PUSH1 0x0 REVERT JUMPDEST PUSH1 0x1 PUSH1 0x1 PUSH1 0xA0 SHL SUB AND DUP1 PUSH1 0x0 MSTORE PUSH1 0x14 PUSH1 0x20 MSTORE PUSH1 0xFF PUSH1 0x40 PUSH1 0x0 KECCAK256 SLOAD AND PUSH2 0x1E38 JUMPI DUP1 PUSH1 0x0 MSTORE PUSH1 0x12 PUSH1 0x20 MSTORE PUSH1 0xFF PUSH1 0x40 PUSH1 0x0 KECCAK256 SLOAD AND SWAP1 DUP2 PUSH2 0x1E22 JUMPI POP SWAP1 JUMP JUMPDEST SWAP1 POP PUSH1 0x0 MSTORE PUSH1 0x13 PUSH1 0x20 MSTORE PUSH1 0xFF PUSH1 0x40 PUSH1 0x0 KECCAK256 SLOAD AND SWAP1 JUMP JUMPDEST POP PUSH1 0x1 SWAP1 JUMP JUMPDEST SWAP1 PUSH1 0x0 SWAP2 DUP2 ISZERO PUSH2 0x1EC0 JUMPI PUSH32 0x6923E5879E7217B6481AFA33E604AD52AFCD215FB632497C2765F7368FA1A09D SWAP2 PUSH1 0x1 PUSH1 0x1 PUSH1 0xA0 SHL SUB PUSH1 0x60 SWAP3 AND SWAP4 DUP5 DUP2 MSTORE PUSH1 0xB PUSH1 0x20 MSTORE PUSH1 0x40 DUP2 KECCAK256 PUSH2 0x1E8E DUP4 DUP3 SLOAD PUSH2 0x1C7D JUMP JUMPDEST SWAP1 SSTORE DUP5 DUP2 MSTORE PUSH1 0xC PUSH1 0x20 MSTORE PUSH1 0x40 DUP2 KECCAK256 PUSH2 0x1EA7 DUP4 DUP3 SLOAD PUSH2 0x1C7D JUMP JUMPDEST SWAP1 SSTORE POP PUSH1 0x40 MLOAD SWAP1 DUP2 MSTORE PUSH1 0x0 PUSH1 0x20 DUP3 ADD MSTORE TIMESTAMP PUSH1 0x40 DUP3 ADD MSTORE LOG2 JUMP JUMPDEST POP POP POP JUMP JUMPDEST SWAP1 PUSH1 0x0 SWAP2 DUP2 ISZERO PUSH2 0x1EC0 JUMPI PUSH32 0x6923E5879E7217B6481AFA33E604AD52AFCD215FB632497C2765F7368FA1A09D SWAP2 PUSH1 0x1 PUSH1 0x1 PUSH1 0xA0 SHL SUB PUSH1 0x60 SWAP3 AND SWAP4 DUP5 DUP2 MSTORE PUSH1 0xB PUSH1 0x20 MSTORE PUSH1 0x40 DUP2 KECCAK256 PUSH2 0x1F15 DUP4 DUP3 SLOAD PUSH2 0x1C7D JUMP JUMPDEST SWAP1 SSTORE DUP5 DUP2 MSTORE PUSH1 0xC PUSH1 0x20 MSTORE PUSH1 0x40 DUP2 KECCAK256 PUSH2 0x1F2E DUP4 DUP3 SLOAD PUSH2 0x1C7D JUMP JUMPDEST SWAP1 SSTORE POP PUSH1 0x40 MLOAD SWAP1 DUP2 MSTORE PUSH1 0x2 PUSH1 0x20 DUP3 ADD MSTORE TIMESTAMP PUSH1 0x40 DUP3 ADD MSTORE LOG2 JUMP JUMPDEST SWAP1 PUSH1 0x0 SWAP2 DUP2 ISZERO PUSH2 0x1EC0 JUMPI PUSH32 0x6923E5879E7217B6481AFA33E604AD52AFCD215FB632497C2765F7368FA1A09D SWAP2 PUSH1 0x1 PUSH1 0x1 PUSH1 0xA0 SHL SUB PUSH1 0x60 SWAP3 AND SWAP4 DUP5 DUP2 MSTORE PUSH1 0xB PUSH1 0x20 MSTORE PUSH1 0x40 DUP2 KECCAK256 PUSH2 0x1F97 DUP4 DUP3 SLOAD PUSH2 0x1C7D JUMP JUMPDEST SWAP1 SSTORE DUP5 DUP2 MSTORE PUSH1 0xC PUSH1 0x20 MSTORE PUSH1 0x40 DUP2 KECCAK256 PUSH2 0x1FB0 DUP4 DUP3 SLOAD PUSH2 0x1C7D JUMP JUMPDEST SWAP1 SSTORE POP PUSH1 0x40 MLOAD SWAP1 DUP2 MSTORE PUSH1 0x1 PUSH1 0x20 DUP3 ADD MSTORE TIMESTAMP PUSH1 0x40 DUP3 ADD MSTORE LOG2 JUMP JUMPDEST SWAP1 PUSH1 0x0 SWAP2 DUP2 ISZERO PUSH2 0x1EC0 JUMPI PUSH32 0x6923E5879E7217B6481AFA33E604AD52AFCD215FB632497C2765F7368FA1A09D SWAP2 PUSH1 0x1 PUSH1 0x1 PUSH1 0xA0 SHL SUB PUSH1 0x60 SWAP3 AND SWAP4 DUP5 DUP2 MSTORE PUSH1 0xB PUSH1 0x20 MSTORE PUSH1 0x40 DUP2 KECCAK256 PUSH2 0x2019 DUP4 DUP3 SLOAD PUSH2 0x1C7D JUMP JUMPDEST SWAP1 SSTORE DUP5 DUP2 MSTORE PUSH1 0xC PUSH1 0x20 MSTORE PUSH1 0x40 DUP2 KECCAK256 PUSH2 0x2032 DUP4 DUP3 SLOAD PUSH2 0x1C7D JUMP JUMPDEST SWAP1 SSTORE POP PUSH1 0x40 MLOAD SWAP1 DUP2 MSTORE PUSH1 0x3 PUSH1 0x20 DUP3 ADD MSTORE TIMESTAMP PUSH1 0x40 DUP3 ADD MSTORE LOG2 JUMP JUMPDEST SWAP1 PUSH1 0x0 SWAP2 DUP2 ISZERO PUSH2 0x1EC0 JUMPI PUSH32 0x6923E5879E7217B6481AFA33E604AD52AFCD215FB632497C2765F7368FA1A09D SWAP2 PUSH1 0x1 PUSH1 0x1 PUSH1 0xA0 SHL SUB PUSH1 0x60 SWAP3 AND SWAP4 DUP5 DUP2 MSTORE PUSH1 0xB PUSH1 0x20 MSTORE PUSH1 0x40 DUP2 KECCAK256 PUSH2 0x209B DUP4 DUP3 SLOAD PUSH2 0x1C7D JUMP JUMPDEST SWAP1 SSTORE DUP5 DUP2 MSTORE PUSH1 0xC PUSH1 0x20 MSTORE PUSH1 0x40 DUP2 KECCAK256 PUSH2 0x20B4 DUP4 DUP3 SLOAD PUSH2 0x1C7D JUMP JUMPDEST SWAP1 SSTORE POP PUSH1 0x40 MLOAD SWAP1 DUP2 MSTORE PUSH1 0x5 PUSH1 0x20 DUP3 ADD MSTORE TIMESTAMP PUSH1 0x40 DUP3 ADD MSTORE LOG2 JUMP JUMPDEST SWAP1 PUSH1 0x0 SWAP2 DUP2 ISZERO PUSH2 0x1EC0 JUMPI PUSH32 0x6923E5879E7217B6481AFA33E604AD52AFCD215FB632497C2765F7368FA1A09D SWAP2 PUSH1 0x1 PUSH1 0x1 PUSH1 0xA0 SHL SUB PUSH1 0x60 SWAP3 AND SWAP4 DUP5 DUP2 MSTORE PUSH1 0xB PUSH1 0x20 MSTORE PUSH1 0x40 DUP2 KECCAK256 PUSH2 0x211D DUP4 DUP3 SLOAD PUSH2 0x1C7D JUMP JUMPDEST SWAP1 SSTORE DUP5 DUP2 MSTORE PUSH1 0xC PUSH1 0x20 MSTORE PUSH1 0x40 DUP2 KECCAK256 PUSH2 0x2136 DUP4 DUP3 SLOAD PUSH2 0x1C7D JUMP JUMPDEST SWAP1 SSTORE POP PUSH1 0x40 MLOAD SWAP1 DUP2 MSTORE PUSH1 0x6 PUSH1 0x20 DUP3 ADD MSTORE TIMESTAMP PUSH1 0x40 DUP3 ADD MSTORE LOG2 JUMP JUMPDEST SWAP1 PUSH1 0x0 SWAP2 DUP2 ISZERO PUSH2 0x1EC0 JUMPI PUSH32 0x6923E5879E7217B6481AFA33E604AD52AFCD215FB632497C2765F7368FA1A09D SWAP2 PUSH1 0x1 PUSH1 0x1 PUSH1 0xA0 SHL SUB PUSH1 0x60 SWAP3 AND SWAP4 DUP5 DUP2 MSTORE PUSH1 0xB PUSH1 0x20 MSTORE PUSH1 0x40 DUP2 KECCAK256 PUSH2 0x219F DUP4 DUP3 SLOAD PUSH2 0x1C7D JUMP JUMPDEST SWAP1 SSTORE DUP5 DUP2 MSTORE PUSH1 0xC PUSH1 0x20 MSTORE PUSH1 0x40 DUP2 KECCAK256 PUSH2 0x21B8 DUP4 DUP3 SLOAD PUSH2 0x1C7D JUMP JUMPDEST SWAP1 SSTORE POP PUSH1 0x40 MLOAD SWAP1 DUP2 MSTORE PUSH1 0x4 PUSH1 0x20 DUP3 ADD MSTORE TIMESTAMP PUSH1 0x40 DUP3 ADD MSTORE LOG2 JUMP JUMPDEST PUSH1 0x1 PUSH1 0x1 PUSH1 0xA0 SHL SUB PUSH1 0x0 SLOAD AND CALLER SUB PUSH2 0x21E5 JUMPI JUMP JUMPDEST PUSH32 0x118CDAA700000000000000000000000000000000000000000000000000000000 PUSH1 0x0 MSTORE CALLER PUSH1 0x4 MSTORE PUSH1 0x24 PUSH1 0x0 REVERT JUMPDEST PUSH9 0x3635C9ADC5DEA00000 LT PUSH2 0x2224 JUMPI JUMP JUMPDEST PUSH1 0x64 PUSH1 0x40 MLOAD PUSH3 0x461BCD PUSH1 0xE5 SHL DUP2 MSTORE PUSH1 0x20 PUSH1 0x4 DUP3 ADD MSTORE PUSH1 0x1D PUSH1 0x24 DUP3 ADD MSTORE PUSH32 0x5245574152445F5F457863657373697665526577617264416D6F756E74000000 PUSH1 0x44 DUP3 ADD MSTORE REVERT JUMPDEST PUSH32 0x4BE847F8AAABDDDE8E8FE98EB5ABE743236D75160AC686D09206AC662A346DAF PUSH1 0x40 PUSH1 0x1 PUSH1 0x1 PUSH1 0xA0 SHL SUB PUSH2 0x229C DUP5 PUSH2 0x1DE7 JUMP JUMPDEST SWAP4 AND SWAP3 DUP4 PUSH1 0x0 MSTORE PUSH1 0x15 PUSH1 0x20 MSTORE PUSH2 0x22C2 DUP2 DUP4 PUSH1 0x0 KECCAK256 SWAP1 PUSH1 0xFF PUSH1 0xFF NOT DUP4 SLOAD AND SWAP2 ISZERO ISZERO AND OR SWAP1 SSTORE JUMP JUMPDEST DUP4 PUSH1 0x0 MSTORE PUSH1 0x14 PUSH1 0x20 MSTORE PUSH1 0xFF DUP3 PUSH1 0x0 KECCAK256 SLOAD AND DUP3 MLOAD SWAP2 ISZERO ISZERO DUP3 MSTORE ISZERO ISZERO PUSH1 0x20 DUP3 ADD MSTORE LOG2 JUMP INVALID LOG2 PUSH5 0x6970667358 0x22 SLT KECCAK256 CODECOPY ORIGIN TIMESTAMP PUSH20 0xFE6A8FB11B40CD6F2E840758D427979D7D2B0657 MOD TSTORE 0x4B 0xA6 PUSH22 0xFEF85764736F6C634300081C00330000000000000000 "},"methodIdentifiers":{"claimHypercertReward(uint256)":"89e0e554","claimRewards(uint256)":"0962ef79","claimRewardsAmount(address)":"3aec4473","dcuToken()":"14cde16e","distributeRewards(address,uint256)":"a8031a1d","getBalance(address)":"f8b2cb4f","getReferrer(address)":"4a9fefc7","getRewardsBreakdown(address)":"5b651c48","getTotalEarnedDCU(address)":"c107e3b4","getUserRewardStats(address)":"9b13027d","getVerificationStatus(address)":"6103681a","hypercertBonus()":"794882d1","hypercertRewardsClaimed(bytes32)":"823888d1","impactProductClaimReward()":"5001d45f","impactProductClaimed(address,uint256)":"aa58152d","impactReportReward()":"22c1f447","impactReportRewardsAmount(address)":"22b31619","lastPoiTimestamp(address)":"4f3f2832","nftCollection()":"6588103b","nftMinted(address)":"2f6f92b3","owner()":"8da5cb5b","poiVerified(address)":"dac773c0","referralReward()":"4d683674","referralRewarded(address)":"62d2eea2","referralRewardsAmount(address)":"69e23ced","referrers(address)":"4a3b68cc","registerReferral(address,address)":"5603b9f9","renounceOwnership()":"715018a6","rewardEligibility(address)":"fcec6769","rewardHypercertMint(address)":"d5b3081b","rewardImpactProductClaim(address,uint256)":"21c838ef","rewardImpactReports(address,uint256)":"76e17483","rewardVerifier(address)":"e9ecfef3","setPoiVerificationStatus(address,bool)":"47c24fcf","setRewardEligibilityForTesting(address,bool)":"9afdf64d","setSubmissionContract(address)":"fb272a92","streakReward()":"3efe458a","streakRewardsAmount(address)":"64f9386a","submissionContract()":"842ce381","totalClaimed(address)":"ef5d9ae8","totalEarned(address)":"649aca4a","transferOwnership(address)":"f2fde38b","treasury()":"61d027b3","updateHypercertBonus(uint256)":"c0ccc0f4","updateImpactReportReward(uint256)":"441eacba","updateNftCollection(address)":"4c5a3f1b","updateNftMintStatus(address,bool)":"a1905a07","updateReferralReward(uint256)":"e554e1ad","updateRewardAmounts(uint256,uint256,uint256)":"5fd6ac81","updateTreasury(address)":"7f51bb1f","updateVerifierReward(uint256)":"95b61987","userBalances(address)":"26224c64","verifierReward()":"b49e80f4"}}}}}